:020000040800F2
:10000000900A0020D5020008B9480008AD3F00085A
:10001000B5480008E91700083D810008000000000D
:100020000000000000000000000000001D6C00083F
:10003000ED17000800000000BD480008216C000812
:10004000EF020008EF020008EF020008EF020008CC
:10005000EF020008EF020008EF020008EF020008BC
:10006000EF020008EF020008EF020008EF020008AC
:10007000EF020008EF020008EF020008EF0200089C
:10008000EF02000800000000EF020008EF02000885
:10009000EF020008EF020008EF020008EF0200087C
:1000A000EF020008EF020008EF020008EF0200086C
:1000B000EF020008396C0008EF020008EF020008A8
:1000C000EF020008EF020008EF020008EF0200084C
:1000D000EF02000811810008EF020008EF0200089B
:1000E000EF020008EF020008EF020008EF0200082C
:1000F000EF020008EF020008EF0200080000000015
:1001000000000000EF02000800000000EF020008FD
:10011000EF02000800000000456C0008EF02000834
:10012000EF020008EF020008EF020008EF020008EB
:10013000EF0200080000000000000000EF020008CD
:10014000EF020008EF0200080000000000000000BD
:10015000000000000000000000000000000000009F
:10016000000000000000000000000000EF02000896
:10017000EF02000800000000000000000000000086
:1001800000000000EF020008000000000000000076
:10019000000000000000000000000000000000005F
:1001A0000000000000000000EF020008EF0200085D
:1001B000EF020008EF020008EF0200080000000054
:1001C00000000000EF020008000000000000000036
:1001D000EF020008EF02000800F002F800F06BF8F0
:1001E00014A696E8000CB244B344DA4501D100F0FD
:1001F00062F8BAE80F000FA696E83000A5EB0405F8
:1002000004EB0607AAEB0704A7F101074FEA15154F
:100210004FEA3414A4F10104AC4201D300F04BF8CE
:1002200013F0010F18BFFB1A43F0010300F001F8AF
:10023000DBE71847E8A7000008A80000103A24BF31
:1002400078C878C1FAD8520724BF30C830C144BF3B
:1002500004680C6070470000704700000023002411
:1002600000250026103A28BF78C1FBD8520728BFC6
:1002700030C148BF0B607047662909F05582642978
:1002800000F00A81732900F05687002070471FB5DF
:1002900009F03DFA00F0AAFF04000020002108F058
:1002A00085FF401C60600020002108F069FFE060CD
:1002B0001FBD10B510BD01F05FFA1146FFF7E7FF53
:1002C00008F054F801F086FA03B4FFF7F2FF03BC1C
:1002D00007F036FF0948804709480047FEE7FEE778
:1002E000FEE7FEE7FEE7FEE7FEE7FEE7FEE7FEE7E6
:1002F00004480549054A064B70470000256C000874
:10030000D901000890040020900A002090060020E7
:100310009006002053EA020C00F069802DE9F04BB2
:100320004FF00006002B1FBFB3FA83F503FA05F464
:1003300024FA05F65E4012BF1643B2FA82F502FABD
:1003400005F4C5F120051EBF22FA05FC44EA0C04A1
:10035000203556EA044C4FEA144418BF641C4FF091
:1003600000084FF00009904271EB030C39D30029CB
:1003700019BFB1FA81F701FA07F6B0FA80F700FA6F
:1003800007F6C7F120071EBF20FA07FC46EA0C0655
:100390002037B6FBF4FCA7EB0507103F07F01F0B57
:1003A000CBF120062CFA06F60CFA0BFB44BFB34641
:1003B0000026202FA4BF5E464FF0000B5BEA060C20
:1003C00008BF4FF0010B19EB0B0948EB0608ABFB1C
:1003D000027C06FB02CC0BFB03CCC01B71EB0C01B7
:1003E000C1E70B46024641464846BDE8F08B13B5CF
:1003F000084318BF4FF0FF300146AFF30080BDE85F
:100400001C4070470FB4044910B503AA029800F0CD
:1004100097FE10BC5DF814FB480100200FB41CB51A
:10042000074B06AA7B4469460090059800F059FEE8
:100430000020694600F068FE1CBC5DF814FB00005B
:10044000E10C000070B50C460546012A05D028785D
:10045000800600D5EA69002302E0012305E05B1C69
:10046000934202D2E05C0028F9D1A869E618C01ACC
:10047000A861286A184428622846AFF3008004E087
:10048000D5E9012114F8010B9047B442F8D328466E
:10049000AFF3008070BD00002DE9F0410646002456
:1004A00010687529314616A510D0AFF300800028DA
:1004B00002DA404213A507E031688A0701D512A588
:1004C00002E0490704D511A5012401E0AFF3008043
:1004D00000210A2206F1240709E0B0FBF2FCB0FB80
:1004E000F2F302FB1C00303078541846491C0028F7
:1004F000F3D123462A463046BDE8F04100F085BBE3
:10050000000000002D0000002B0000002000000073
:100510002DE9F0474FF0000A89460446C0F820A0B4
:100520002046E1688847002876D0252806D0D4E9FF
:1005300001219047206A401C2062F1E7E1682046D3
:1005400000258847C4F81CA006460027C4F818A058
:100550002A2E09D0304608F00CFE38B304EB870889
:10056000303EC8F8186019E059F8041B204604EB27
:1005700087029161E1688847012F064618D1E0693A
:10058000002820DA25F020051DE0D8F8180000EB3F
:10059000800006EB40003038C8F818002046E168BB
:1005A0008847064608F0E5FD0028EED1012F0AD065
:1005B0002E2E08D12046E16888477F1C0646022F70
:1005C00045F02005C4DBA069002803DA404245F06D
:1005D0000105A061E80701D025F01005B6B1A6F12C
:1005E0004100192802D8203645F400654A463146B4
:1005F000204625604D46FFF73FFE58B1012806D042
:10060000ED1D25F0070000F1080989E704E005F178
:10061000040985E730468AE7206ABDE8F0870000D4
:100620000FB400B58DB010A9099000910B904FF058
:10063000FF300A9000200C90064878440690064847
:1006400078446A4607900F9909A800F09FFD0DB005
:100650005DF814FB6F0B0000870B00002DE9FF5FB6
:100660001D464FF0FF3B91464FF000085F46D5E92D
:100670000146A96901987F1C8847296A82468847F4
:100680000028F6D1BAF1FF3F0CD0002E24F4C0644C
:1006900019DD600614D5BAF12B0F09D0BAF12D0F70
:1006A0000ED103E0584604B0BDE8F09F44F48064E6
:1006B000A96901987F1C8847761E8246002E02DDBC
:1006C000BAF1300F03D0B9F1000F26D032E0A9699A
:1006D000761E01987F1C44F400748847002E8246E1
:1006E00005DDBAF1780F06D0BAF1580F03D0B9F191
:1006F000000F10D01EE0B9F1000F02D0B9F1100FB9
:1007000018D1A969761E01987F1C24F400748847CB
:100710008246102002E0082000E00A20814609E01D
:10072000A96908FB0908761E01987F1C44F400742F
:1007300088478246002E05DD4946504600F012FDEE
:100740000028EDDAE96901988847A00502D46FF026
:100750000100A8E7E00725D1600613D5600502D5A2
:10076000C8F1000000E0404629680A1D2A600968B7
:10077000220501D5087015E0220701D5088011E097
:1007800008600FE02868011D29600068210502D576
:1007900080F8008006E0210702D5A0F8008001E083
:1007A000C0F8008038467EE72DE9FF5F4FF0000873
:1007B0009946144646469169D2E901A7DDF838B05A
:1007C00001988847054659EA0B0005D009E0A16960
:1007D0000198761C88470546216A284688470028E4
:1007E000F5D1681C03D05FEACA7005D015E04FF060
:1007F000FF3004B0BDE8F09F2068011D2160D0F8F3
:1008000000800AE05FEACA7001D108F8015BA169C3
:10081000761C01987F1E88470546002F1ADD681C4C
:1008200018D0B9F1000F0DD0E81705EBD0604211D8
:1008300020F01F0059F822102A1A0120904001428E
:10084000E0D107E0BBF1000FDCD12846216A8847E0
:100850000028D7D0E16901988847BBF1000F07D184
:10086000002E05DD5FEACA7002D1002188F8001071
:10087000A068B84203DDBBF1000F03D017B16FF0E1
:100880000100B6E73046B4E710B5044603E007F0D0
:1008900059FC401C09D014F8010B05490028F6D179
:1008A000BDE810400A2007F04DBC4FF0FF3010BDEE
:1008B0004801002040EA010310B59B070FD1042A2C
:1008C0000DD310C808C9121F9C42F8D020BA19BA1B
:1008D000884201D9012010BD4FF0FF3010BD1AB180
:1008E000D30703D0521C07E0002010BD10F8013BD5
:1008F00011F8014B1B1B07D110F8013B11F8014BFC
:100900001B1B01D1921EF1D1184610BD40EA010314
:10091000024630B59B0710D14FF0013400E008C209
:1009200008C91D1B9D4315EAC41FF8D013F0FF0131
:1009300002F8011B0DD01B0AF8E711F8013B002B50
:1009400002F8013B05D011F8013B002B02F8013BF6
:10095000F3D130BD10B5431C02E010F8011B71B19A
:100960008107FAD14FF0013202C88C1A8C4314EA85
:10097000C211F9D0C01A0A0603D0C01E10BDC01A99
:1009800010BD0A0401D0801E10BD0902FCD0401E1B
:1009900010BD4FF0000200B513469446964620392C
:1009A00022BFA0E80C50A0E80C50B1F12001BFF428
:1009B000F7AF090728BFA0E80C5048BF0CC05DF88E
:1009C00004EB890028BF40F8042B08BF704748BFDC
:1009D00020F8022B11F0804F18BF00F8012B704750
:1009E00030B44FF0013C50F8042B51F8043BCCFAE2
:1009F00052F4D51A20D1FCB950F8042B51F8043B1D
:100A0000CCFA52F4D51A17D1B4B950F8042B51F8D6
:100A1000043BCCFA52F4D51A0ED16CB950F8042B21
:100A200051F8043BCCFA52F4D51A05D1002CDAD097
:100A300030BC4FF00000704729BAB1FA81F111F0D3
:100A40001801D1F120008440F2D1CA40CB4012F00D
:100A5000FF0213F0FF0330BCD01A704710B50368D3
:100A60001C1404EB21449BB289B2194494FBF2F3A9
:100A700002FB134394FBF2F401EB034393FBF2F10B
:100A800002FB113193FBF2F301E05B1E11440029DC
:100A9000FBDB016003EB044010BD2DE9F047044689
:100AA0004FF0FF3A86B00068029060680390A0683B
:100AB0000490E068019020690090656905F180402C
:100AC000B0F1004F7DD83C22002102A8FFF7C6FFFD
:100AD0003C22014603A8FFF7C1FF1822014604A8E3
:100AE000FFF7BCFF411E40F2B55201A8FFF7B6FF69
:100AF0000C22064668460021FFF7B0FF00EB860097
:100B000028443E4D00267D440FE09A1A491CCDE949
:100B10000012022902D00C2907D104E0810704D079
:100B2000521C019201E0401C00960099019B6A5CF6
:100B30009A42EADD012906D11C2B04D1810702D09B
:100B40000221CDE90016A0F146018B2940D201997E
:100B5000009B00220F4602E0AE5C521C31449A42D8
:100B6000FADB012B02DD820700D0491E40F2B555A9
:100B700040F26D16C21700EB927292106A4300F0B9
:100B8000030505FB062285070A4400D1521E049D79
:100B900002EB4206DDF80C80A94605EBC605184EAF
:100BA000C5EB0515DDF808C008EB850535442E14A6
:100BB000ADB2C6EB0616C5EB0515B6000CEB850508
:100BC00000E005E006EB154666F31F45360C03D042
:100BD000504606B0BDE8F087C4E904307F1C07200A
:100BE000521CC4E9029792FBF0F3E4E806C800FB4C
:100BF000132084E803042846EBE70000228C000061
:100C0000A039CEFD7047704770472DE9F0470D467B
:100C100099469246044600F124080168880604D5E6
:100C2000E06921F01001216000E00120A84201DD0F
:100C3000471B00E00027A1697A1902EB0900081A96
:100C4000A0612078C00602D42046AFF300800026C1
:100C500008E0D4E901211AF806009047206A401CF8
:100C6000761C20624E45F4DB2078C0060AD520466B
:100C7000AFF3008006E0D4E9012130209047206ADC
:100C8000401C2062381EA7F10107F4DC07E0D4E91C
:100C9000012118F805009047206A401C2062281E98
:100CA000A5F10105F3DC2046AFF3008020780006B3
:100CB00002D50220BDE8F0870120FBE72DE9FF4FB8
:100CC0000C461E464FF0FF378BB0D2E90001DDF82D
:100CD00060800A908A46C1F30A5505B93D46002155
:100CE00008464FF00000BAF1000F00F4400005DAAA
:100CF00000EB80004FF4400101EA50004FEA9059A8
:100D0000B9F1010F00DDB9460A9850EA4A000ED049
:100D100044F61050A5F2FF3545432F14B8F1000FEB
:100D20001ED07542291E1EDDC9F100021CE0B8F17B
:100D3000010F4FF0000001D0302103E0F24305E045
:100D40002154401CB042FBDB3046002200212154DC
:100D50000B99C1F80880C1E900200FB0BDE8F08F01
:100D6000BD1B6D1CDEE74A4600DA694206A800F0AA
:100D700089FC06AB93E8070003AB83E80700504605
:100D80000A9907F001FE8DE80700A0F500501F3812
:100D900000900398002D0ADD42F21F014A460844E4
:100DA000002303A90390684608F06AF809E0A0F55B
:100DB00000504A461F38002303A90390684608F0F4
:100DC00074F88DE807000004000C03D04FF0FF30EA
:100DD000410800E01046B8F1000F03D00022009255
:100DE00015461EE0751E05D400F004FA3032625537
:100DF0006D1EF9D5B3460122084302D000227F1CA4
:100E000004E02078302801D100227F1E002A0997B3
:100E100084D01DE0112D07DA00F0ECF93032625574
:100E20006D1C50EA0102F5D1084302D00098C8B108
:100E30000EE00021681E05E0235C625C63542254CE
:100E4000401E491C8142F7DBAB46A81B401E09909F
:100E5000002004F80B000B98099AC0F80880C0E93C
:100E6000002B7AE711264FF0000857E72DE9F04FE5
:100E700088460446D21D22F0070191B0D1E9000155
:100E8000CDE90A0108F048F902460B98C00F01D0DD
:100E90002D2007E02068810701D52B2002E02021CA
:100EA00001EAC000032A099001D0072A05DB0346A6
:100EB0004146204600F0ECF90BE12078800601D590
:100EC000E06900E00620B8F1650F814606D0B8F170
:100ED000660F18D0B8F1670F70D131E00020B9F17A
:100EE000110F009001DB112301E009F101030AAAAF
:100EF00001A90CA8FFF7E2FEDDE90C70002609F15C
:100F00000105834647E001204B4600904FF0004723
:100F10000AAA01A90CA8FFF7D1FEDDE90DB00C99D2
:100F20005D46002610B909F101000D18B9EB050066
:100F300003D4C0F1FF3609F10105A5EB09002BE050
:100F4000B9F1010F01DA4FF001090020B9F1110FD9
:100F50000090484601DD112300E003460AAA01A9DA
:100F60000CA8FFF7ABFEDDE90C704D46002683466A
:100F7000207800070AD4AB4500DA5D4601A8012DB0
:100F800004DD411911F8011C302907D04F4502DA60
:100F900017F1040F04DA012082460FE06D1EEEE720
:100FA000002F02DCED1B3E4403E0781CA84200DD6C
:100FB0007D1CB81B00F1010A4FF0004720780007A4
:100FC00003D4AA4501DB4FF0FF3A0021B7F1004FEF
:100FD0000DF143088DF8431024D002202B23002F5D
:100FE00001DA7F422D230A21021EA0F1010000DC5C
:100FF0005FB197FBF1FC97FBF1F201FB1C7C1746FC
:101000000CF1300C08F801CDEEE7A8F101000370F7
:101010002188090501D5452100E06521A0F10108DD
:1010200000F8011C09980FA9A1EB0807FF1D00B1EA
:101030000120411901EBEA70A1693844081A401EE9
:10104000A0612078C00602D42046AFF30080099842
:1010500028B1D4E901219047206A401C2062207801
:10106000C00622D52046AFF300801EE0002E04DB30
:10107000B34502DD01A8805D00E03020D4E9012104
:101080009047206A401C2062761CAAF101005FEAAA
:10109000000A0AD100F0AAF8C0680168405CD4E9EF
:1010A00001219047206A401C2062281EA5F10105FD
:1010B000DCDC07E0D4E9012118F8010B9047206A35
:1010C000401C2062381EA7F10107F3DC2046AFF375
:1010D0000080032011B041E601694A1C02610878D2
:1010E000704700B58FB0CDE9013100210591054968
:1010F0007944CDE9031011466846FFF709FA0FB0AD
:1011000000BD0000E5FFFFFF0A6802F8010B0A605E
:10111000704710B5436913B1AFF3008001E0FFF7EA
:1011200091F9012010BD127800F124010A7000220B
:101130004A700122EDE711684FF0FF32E9E7000045
:10114000074B70B50D467B44FFF7CBFF044628469E
:1011500000F00AFB10B14FF0FF3070BD204670BDAB
:10116000FB6F00003A2800D2303820F02002412ADC
:1011700001D3A2F13700884201D34FF0FF3070470E
:10118000026811441378016018467047D160054920
:101190007944516104497944116200211161114679
:1011A00000F0B6B8EDFFFFFFE5000000426842B175
:1011B000016811F8013B23B1521EC0E90012184624
:1011C00070470121C160881E704742685AB1C368E8
:1011D000016843B983688B4205D0491E521CC0E99F
:1011E0000012002070474FF0FF30704700487047F2
:1011F0003800002030B5B0F10A0271F100034FEA67
:10120000900E4EEA817EB0EB0E0061EB91014FEA49
:10121000101E4EEA017E10EB0E0041EB11114FEA59
:10122000102E4EEA016E10EB0E0041EB11214FEA39
:10123000104E4EEA014E10EB0E0041EB11414018EA
:1012400041F100014FEAD00040EA41704FEAD1017C
:101250004FEA810444EA907410EB800544EB0104EA
:101260006D1944EB0404521BA3414FF0000348BF27
:101270000A3200D530BD401C41F1000130BD10B52F
:10128000044600F09FFA0068005D00F0010010BD08
:101290002DE9F0411F46044603260168072A01F4A0
:1012A000006004DB08B116A505E016A503E008B14F
:1012B00015A500E015A521F010002060A069C01E52
:1012C000A0610FB1401EA0612046AFF300804FB176
:1012D000D4E9012138469047206A401C2062C01C96
:1012E000206206E0206AFAE7D4E9012115F8010B33
:1012F0009047761EF8D22046AFF30080BDE8F0811B
:101300004E414E006E616E00494E4600696E6600A9
:101310002DE9F34F4FF0000A0C4656468DB00120E0
:101320000C9001F10C000B9062690B980121904721
:10133000051E2DD0252D2CD0216A8847C0B16269A9
:101340000B9801219047216A88470028F7D16269EC
:10135000411E0B98904700E0761CA1690D988847C4
:10136000216A88470028F7D1E1690D988847DBE7B3
:10137000A1690D988847A842074601D1761CD3E79A
:10138000E1690D9888477F1C02D1BAF1000F6FD038
:101390006BE162690B9800273D46394690472A2841
:1013A00004D162690B98012190470125DFF8D082B2
:1013B00062690B9801219047A0F130010A290AD2F5
:1013C0004745E5DC07EB870100EB4107303FDFD401
:1013D00045F01005ECE7E90601D46FF000476C28F2
:1013E0000AD04C2814D0682815D06A280DD074284B
:1013F0001CD07A281AD01DE062690B980121904711
:101400006C2802D045F0040514E045F002050DE01B
:1014100045F020050AE062690B9801219047682891
:1014200002D045F0080505E045F4006562690B98B7
:1014300001219047C4E9015765283DD019DC58289F
:101440007AD00CDC452837D004DC252826D041286A
:101450009ED131E046282FD0472899D12CE05B2837
:1014600077D0612828D063287CD0642823D15AE023
:10147000F6E06F2848D008DC66281DD067281BD00E
:10148000692821D06E2816D127E0702845D073280E
:1014900068D0752847D078280DD14DE0A1690D9806
:1014A0008847252805463FF469AFE1690D988847CC
:1014B0006D1C3FF46AAFD8E00D9923466A466FF081
:1014C0000100AFF30080C5E045F0400023464FF037
:1014D00000026060A80736D43EE0E8077FF447AF1B
:1014E0002068011D21600068290501D506701BE7F1
:1014F000290701D5068017E7A90703D5F117C0E929
:10150000006111E706600FE745F0400023464FF009
:1015100008026060A80716D41EE040F60E0125EA16
:101520000100606016E045F0400023464FF00A02DB
:101530006060A80707D40FE045F040006060A8078E
:1015400008D5234610220D996FF00100AFF30080FB
:1015500080E007E0102223460D996FF00100FFF7AD
:101560007DF877E04FF0000963284F46C8464B46A8
:10157000CB4602D05B2806D038E0E80601D4012033
:10158000A060012732E06269D4F80CB00B98012109
:1015900090475E2807D14FF0010949466269D4F8A7
:1015A0000CB00B989047216939B900210A4603AB6A
:1015B00043F82120491C0829FADBD8B3216949B333
:1015C00008F1010862690B98012190475D28F4D168
:1015D000B9F1000F09D0002003A951F82020D2430F
:1015E00041F82020401C0828F7DB03AB20690028C5
:1015F00020794FEA40701ED05B462246CDF800802D
:10160000CDE901970D9900286FF0010020DAAFF3C2
:1016100000801FE0C11703AA00EBD1614B1121F03C
:101620001F0102EB8302411A136801208840034323
:101630001360C7E719E00D99224600286FF00100FA
:10164000009702DAAFF3008004E0FFF7ADF801E0A5
:10165000AFF3008000280ADA401C06D10C9820B1B4
:101660004FF0FF300FB0BDE8F08F5046FAE7E907C2
:1016700001D10AF1010A064400200C9054E6000052
:10168000CCCCCC0C2DE9F047814616468AB03548C3
:1016900078440DC88DE80D0032487844801C03ACB6
:1016A0000DC884E80D0041F69B300844372190FBBB
:1016B000F1F290FBF1F5A5F1800501FB12041B3C52
:1016C00002D56442012000E00020DFF898A08046A7
:1016D0000027FA44AAF1BE0A0EE0E0070AD032461B
:1016E000684607EB470101230AEB810107F0DDFBA8
:1016F0008DE8070064107F1C002CEED1194F7F4449
:10170000AE3F19E0E80715D007EB04100DF1180AF9
:1017100090E80E008AE80E00C068F04201D19819E6
:1017200008903246012306A903A807F0BEFB03ABCD
:1017300083E807006D10641C002DE3D14FF0010316
:1017400032466946B8F1000F03A802D007F098FBB3
:1017500001E007F0AAFBC9E90001C9F808200AB0B6
:10176000BDE8F08720810000007B00F0800070471A
:1017700000487047180000207546FFF7F9FFAE4695
:1017800005006946534620F00700854618B020B58D
:10179000FEF7AEFDBDE820404FF000064FF0000719
:1017A0004FF000084FF0000BAC46ACE8C009ACE8C5
:1017B000C009ACE8C009ACE8C00921F007018D46BA
:1017C0007047000010B5FFF711FD001D10BD00BFF0
:1017D000DD79000010B50446AFF300802046BDE877
:1017E0001040FEF771BD0000FEE7000070470000EA
:1017F000EFF3108072B600BFFEE70000014690F8DC
:101800002500022827D180B50868D1E910CE8A6C5E
:10181000036823F00E030360136823F480731360DE
:10182000026822F0010202600EF01F00012202FA9B
:1018300000F0CCF80400D1E913205060486D30B1BD
:10184000026822F480720260D1E916024260002030
:10185000BDE8804002E00420C8630120012281F835
:101860002520002281F824207047000090F82510E0
:10187000022930D180B50168D0E910CE826C0B68A6
:1018800023F00E030B600B6823F001030B6011685B
:1018900021F4807111600EF01F02012101FA02F2A1
:1018A000CCF80420D0E913325A60426D32B113688B
:1018B00023F480731360D0E91623536080F8251059
:1018C000826B002180F824100AB190470021BDE806
:1018D0008040084670470421C1630121002280F83E
:1018E000251080F82420084670470000B0B5044653
:1018F00000F0EAF8054640F20C00C2F20000006871
:10190000611C18BF044400BF00F0DEF8401BA04279
:10191000FAD3B0BD2DE9F04F82B00D68002D00F074
:10192000C48000F13847860546EA972741F2004611
:10193000C4F60006062240F2004EB04208BF05225F
:10194000C4F2010E052F38BF3A464FF0000C0124B7
:1019500000270026009209E00D68013635FA06F2EC
:1019600007F102070CF1040C00F09F8004FA06FB5B
:1019700015EA0B08F0D0D1F804A003230AF0030500
:101980006A1EBB40012A6FEA03090FD88268CB6840
:1019900002EA0902BB401A4382604268CAF300139C
:1019A00022EA0B02B3401A43426003E0032D01D147
:1019B00003251FE0C2688B6802EA0902BB401A4394
:1019C000022DC26016D16FF0030202EA56020244F1
:1019D0000CF01C050F23D2F820A003FA05FB0B69BD
:1019E0002AEA0B0AAB4043EA0A031362D1F804A0C7
:1019F0000AF00305026805FA07F302EA09021A432E
:101A00001AF4403F0260A7D041F26003C4F202031F
:101A10001A684FF6084A42F001021A601A68CFF6B7
:101A2000FF7A02F001020192019A26F00302724449
:101A300052F80A900CF00C050F23009CAB4029EAE9
:101A4000030304FA05F52B4342F80A30DEF80820B8
:101A50004B6842EA080540F20C49DC0258BF22EA12
:101A60000805CEF80850C4F20109D9F800209D02FB
:101A700042EA080458BF22EA0804C9F80040DEF828
:101A800004209D0342EA080458BF22EA0804CEF865
:101A90000440DEF80020DB0342EA080458BF22EAD3
:101AA0000804CEF80040012456E702B0BDE8F08FEC
:101AB0000069084018BF0120704700001823002A61
:101AC00008BF2823C150704740F28C40C2F200008A
:101AD0000068704740F20C0040F28C41C2F20000F6
:101AE000C2F2000100680A681044086070470000F4
:101AF00080B5032000F08EF80F2000F009F80028D0
:101B00001CBF012080BD00F02DF8002080BD00002A
:101B1000B0B540F20C01C2F20001096801B30446FD
:101B200040F20400C2F200004FF47A720068B2FB87
:101B3000F1F1B0FBF1F000F087FE0F2C4FF0010542
:101B40000CD858B94FF0FF3021460022002500F094
:101B500035F840F21000C2F2000004602846B0BD23
:101B60000120B0BD82B041F25800C4F20200816889
:101B700041F001018160816801F001010191019949
:101B8000016841F080510160006800F080500090D1
:101B9000009802B000F0E0B8002848BF704700F09D
:101BA0001F01012202FA01F11C2202EAD0004EF2CA
:101BB0000012CEF2000281507047000010B54EF6C0
:101BC0000C5CCEF2000CDCF80030C3F3022E8EF079
:101BD0000704042C28BF0424BEF103034FF0FF3E8A
:101BE0000EFA04F438BF0023A14399400EFA03F320
:101BF0009A43114300F00F0200F160430901043AD7
:101C000003F564436244002848BF02F10C031970D5
:101C100010BD00004EF60C51CEF200010A684FF6DE
:101C2000FF031A4060F30A2242F0806040F0FD702A
:101C300008607047B0F5007F42D0002840F07F80F8
:101C400047F21400C4F2000050F8141CC26E01F4F4
:101C5000C06122F48072B1F5806FC2662ED150F857
:101C6000141C012262F34A2140F8141C40F20401C2
:101C7000C2F200010968322251434DF68362C4F278
:101C80001B32A1FB0212910C0268520511D54A1CAD
:101C90000FD0026852050CD559B10268520508D51B
:101CA000012906D00268520503D50229A1F10401D9
:101CB000EAD10068400544BF032070470020704708
:101CC00047F21400C4F2000050F8141CC26E01F474
:101CD000C06142F48072B1F5806FC266EED150F8F7
:101CE000141C012262F34A2140F8141C40F2040142
:101CF000C2F200010968322251434DF68362C4F2F8
:101D00001B32A1FB0212910C0268520511D54A1C2C
:101D10000FD0026852050CD559B10268520508D59A
:101D2000012906D00268520503D50229A1F1040158
:101D3000EAD10068400544BF03207047BEE747F280
:101D40001400C4F2000050F8141C022262F34A216D
:101D500040F8141C0020704747F20800C4F200004D
:101D6000016841F480410160704700002DE9F041B5
:101D700082B00446807841F288060007C4F2020669
:101D800001D400202FE056F8300C5FEAC0080BD4D5
:101D900056F8300C40F0805046F8300C56F8300CB5
:101DA00000F080500190019847F20007C4F200074C
:101DB000386840F480703860FFF786FE054600BF43
:101DC0003868C00500F1D480FFF77EFE401B022872
:101DD000F6D90320B8F1000F05D456F8301C21F0D5
:101DE000805146F8301C2168CA0712D18A0718D4DE
:101DF0004A071ED40A0724D48A062AD44A0630D4B5
:101E00000A0636D4CA053CD48A0542D44A0548D4C9
:101E100056E03268636822F003021A4332608A0790
:101E2000E6D53268A36822F00C021A4332604A07F2
:101E3000E0D53268E36822F030021A4332600A07C4
:101E4000DAD53268236922F0C0021A4332608A066A
:101E5000D4D53268636922F440621A4332604A067C
:101E6000CED53268A36922F440521A4332600A0682
:101E7000C8D53268E36922F440421A433260CA0589
:101E8000C2D53268236A22F440321A4332608A058E
:101E9000BCD53268636A22F440221A4332604A0594
:101EA0000ED53268A36A22F440121A43B3F5801F9C
:101EB000326005D156F87C2C42F4801246F87C2C16
:101EC0000A050ED53268E36A22F440021A43B3F5DC
:101ED000800F326005D156F87C2C42F4801246F80F
:101EE0007C2CCA040ED53268236B22F040721A4350
:101EF000B3F1807F326005D156F87C2C42F4801219
:101F000046F87C2C8A040ED53268636B22F040625E
:101F10001A43B3F1006F326005D156F87C2C42F4BD
:101F2000801246F87C2C4A040ED53268A36B22F04E
:101F300040621A43B3F1006F326005D156F87C2C31
:101F400042F4801246F87C2C09040ED53168E26B0D
:101F500021F040511143B2F1805F316005D156F854
:101F60007C1C41F4803146F87C1C02B0BDE8F08155
:101F7000B06810F4407010D0216C88420BD0B0686B
:101F8000B16820F4407041F48031B160B16821F44F
:101F90008031B160B060C0070BD1B068216C20F413
:101FA00040700843B0600020B8F1000F3FF51BAF50
:101FB00013E7FFF789FD054641F28837B0688007CF
:101FC000EBD4FFF781FD401BB842F7D901E70000D1
:101FD0002DE9F047002864D042F2000AC4F2020A58
:101FE0000446DAF800000D4600F00F0088420CD2DB
:101FF000DAF8000020F00F002843CAF80000DAF8F1
:10200000000000F00F00A8424BD1216841F20808FF
:10201000C807C4F2020803D1880740F1D180B6E0B6
:102020006068022839D003283ED158F8082C920164
:1020300037D5D8F80420D8F8043042F20046C3F36C
:10204000031302F00302D8F804700133C0F2F4065F
:10205000032A04BF43F20066C0F26E16B6FBF3F229
:10206000D8F80430C7F306277A43C3F34163022745
:1020700007EB4303B2FBF3F24BF20043C0F2C4435D
:102080009A425AD9D8F8002012F0F00F4BD08907A5
:1020900053D5A168002950D145E058F8081C8903A0
:1020A00006D40120BDE8F08758F8081C4905F8D58A
:1020B000D8F8001001F00C0104293ED0D8F8001027
:1020C00001F00C01082938D0D8F8001001F00C01FB
:1020D0000C2932D1D8F80410D8F8042042F2004775
:1020E000C2F3031201F00301D8F804300132C0F248
:1020F000F407032904BF43F20067C0F26E17B7FB71
:10210000F2F1D8F80420C3F306235943C2F3416225
:10211000022303EB4202B1FBF2F14BF20042C0F2A8
:10212000C442914209D9D8F80010082262F307117D
:102130004FF00109C8F8001001E04FF00009D8F88D
:10214000001021F003010843C8F80000FFF7BCFCB1
:10215000064641F2883700BFD8F80000616800F0F9
:102160000C00B0EB810F07D0FFF7AEFC801BB8422C
:10217000F2D90320BDE8F0872168880707D4B9F1B8
:10218000000F1DD0D8F8000020F0F00016E048073E
:1021900005D5D8F8000040F4E060C8F80000080752
:1021A00006D5D8F80000072262F30D20C8F8000019
:1021B000D8F80000A26820F0F0001043C8F8000032
:1021C000DAF8000000F00F00A8421AD9DAF800008F
:1021D00020F00F002843CAF80000FFF775FC064600
:1021E00041F28837DAF8000000F00F00A84207D06B
:1021F000FFF76AFC801BB842F4D90320BDE8F087E2
:102200002168480707D5D8F80000E26820F4E060AC
:102210001043C8F80000080708D5D8F80000216965
:1022200020F4605040EAC100C8F80000D8F800006F
:1022300042F20041C0F2F40100F00C00042808460C
:102240002DD0D8F8000000F00C00082843F2006000
:10225000C0F26E1023D0D8F8002002F00C020C2A35
:102260001CD1D8F80420D8F8043002F00302C3F3DC
:102270000313D8F804700133032A08BF0146B1FBE9
:10228000F3F0D8F80410C7F30627C1F34161022226
:10229000784302EB4101B0FBF1F000E00020D8F8F8
:1022A000001049F2CC72C1F30311C0F60002515C78
:1022B00040F2040201F01F0120FA01F140F2100087
:1022C000C2F200000068C2F200021160BDE8F047EF
:1022D000FFF71EBC40F2040041F20801C2F2000008
:1022E000C4F202010068096849F2DC72C1F30221FC
:1022F000C0F60002515C01F01F01C84070470000A9
:1023000040F2040041F20801C2F20000C4F20201EE
:102310000068096849F2DC72C1F3C221C0F600020C
:10232000515C01F01F01C8407047000041F20C01F0
:10233000C4F2020151F8040C42F20042C0F2F4026D
:1023400000F00C000428104608BF704751F8040C38
:1023500000F00C00082843F20060C0F26E1025D097
:1023600051F8043C03F00C030C2B1CBF00207047F9
:1023700080B5D1F800C00B680CF0030CC3F3031E4A
:102380000B680EF1010EBCF1030F08BF024609688D
:10239000B2FBFEF0C3F30623C1F3416102225843AE
:1023A00002EB4101B0FBF1F0BDE880407047000056
:1023B000002804BF012070472DE9F04182B0044697
:1023C000007841F20006C007C4F202061DD1207851
:1023D00080073BD4207800075ED4207840077CD467
:1023E0002078800600F1CA80E569002D00F028827F
:1023F000B06800F00C000C2840F01A81012D40F06C
:102400007681012002B0BDE8F081B06800F00C01D7
:10241000F068082958D0032281F00C0122EA00005C
:102420000844B0FA80F040094ED16068B0F5803FB2
:1024300007D0B0F5A02F40F0D080306840F4802065
:102440003060306840F480303060D1E0B068F168CE
:1024500000F00C00042864D001F0030180F00C00AF
:1024600081F002010844B0FA80F0400959D1E168D6
:102470003068002900F0CA8040F480703060FFF7B7
:1024800023FB05463068400500F1F480FFF71CFB94
:10249000401B0228F6D926E16169D6F8940000298C
:1024A00000F0898040F00100C6F89400FFF70CFBB3
:1024B000054600BFD6F8940080078ED4FFF704FBD2
:1024C000401B0228F6D90EE1306880037FF57FAF0C
:1024D000606800287FF47BAF39E0B06D5FEAC00828
:1024E00008D4B06D40F08050B065B06D00F0805001
:1024F0000190019847F20007C4F200073868C00550
:1025000029D4386840F480703860FFF7DDFA05465A
:102510003868C0051FD4FFF7D7FA401B0228F7D947
:10252000E1E03068400501D5E06880B1706821695C
:1025300020F0FE4040EA0160706040F21000C2F2FC
:1025400000000068FFF7E4FA00283FF443AF0120E1
:1025500002B0BDE8F081A068012808D0052840F04D
:10256000A680D6F8900040F00400C6F89000D6F897
:10257000900040F00100C6F89000A6E0A169D6F8EE
:102580009800002900F07E8040F00100C6F8980015
:10259000FFF79AFA054600BFD6F8980080073FF586
:1025A00023AFFFF791FA401B02284FF00300F3D945
:1025B00002B0BDE8F08120F00100C6F89400FFF7FA
:1025C00083FA0546D6F8940080077FF506AFFFF73B
:1025D0007BFA401B0228F5D985E03168002821F4F8
:1025E00080313160316821F48021316000F0B880A1
:1025F000FFF76AFA054600BF306880033FF5E7AE93
:10260000FFF762FA401B6428F6D96CE020F4807072
:102610003060FFF759FA0546306840057FF5DAAEBD
:10262000FFF752FA401B02284FF00300F4D9BFE72E
:10263000306820F080703060FFF746FA022D0546C2
:102640000CD100BF3068800140F1B580FFF73CFA43
:10265000401B02284FF00300F4D9A9E7306880013D
:1026600040F1E780FFF730FA401B02284FF00300EB
:10267000F4D99DE77068216920F0FE4040EA0160CE
:102680007060A7E620F00100C6F89800FFF71CFA7A
:10269000054600BFD6F8980080077FF5A5AEFFF786
:1026A00013FA401B02284FF00300F3D980E7D6F855
:1026B0009010002821F00101C6F89010D6F8901073
:1026C00021F00401C6F890105AD0FFF7FDF9054635
:1026D00041F28837D6F89000800763D4FFF7F4F909
:1026E000401BB842F6D9032002B0BDE8F081F06883
:1026F000216A00F003028A427FF429AF626A6FF018
:102700000F0300F0F00103EB021291427FF41FAFC0
:10271000A16A00F4FE42B2EB012F7FF418AFE16A28
:1027200000F07842B2EBC16F7FF411AF226B00234F
:10273000CFF6E07303EA025200F4C001A2F50012E2
:1027400091427FF404AF616B4FF07E4202EA016177
:1027500000F0C06001F17E4188427FF4F8AE6FE086
:10276000FFF7B2F9054600BF306880037FF52FAE52
:10277000FFF7AAF9401B64284FF00300F4D917E7CC
:10278000FFF7A2F9054641F2883700BFD6F890005E
:10279000800707D5FFF798F9401BB8424FF00300B8
:1027A000F4D905E7B8F1000F3FF51AAEB06D20F08F
:1027B0008050B06514E6F06848F20C01C0F29F1139
:1027C00004F1200700EA010C8ECF6FF00F00D4E96E
:1027D0000C5400EB02100022CFF6E07241EA0C012B
:1027E00002EA05520843A2F500124FF07E4540EA86
:1027F000032005EA0465104305F17E4540EAC76001
:102800002843F060306840F080703060F06840F03D
:102810008070F060FFF758F9044600BF306880010F
:102820000ED4FFF751F9001B02284FF00300F5D931
:10283000BEE6F0684FF6FC71CFF6EE610840F0603E
:10284000002002B0BDE8F081411E0020B0EB116F06
:102850001CBF012070474EF21002CEF20002516000
:102860004EF62351CEF20001F0230B700721906049
:10287000116070477047000070470000704700000B
:1028800070470000704700007047000090F83C203F
:10289000012A4FF002024AD070B580F83D2002684C
:1028A00043F2004C54689368C4F2010C42F6004EA7
:1028B0006245C4F2010E01D0724503D14D6824F483
:1028C00070042C434FF68F75CFF6FF550E682C40E1
:1028D00042F6FF35C4F201053443AA4254600FDCCE
:1028E000B2F1804F16D040F20046C4F20006B24268
:1028F00010D040F60006C4F20006B2420AD00EE044
:10290000724507D044F20006C4F20106B24201D07B
:10291000624504D1896823F0800319439160012145
:10292000002280F83D1080F83C20BDE87040104641
:102930007047000070470000002804BF0120704766
:1029400010B5044690F83D0028B9002084F83C00FA
:10295000204600F023F8022084F83D002068211D65
:1029600004F076F9012084F8480084F83E0084F8E9
:102970003F0084F8400084F8410084F8420084F865
:10298000430084F8440084F8450084F8460084F845
:10299000470084F83D00002010BD000010B582B053
:1029A000006841F20001C4F20001884217D040F2F1
:1029B0000041C4F2000188422AD141F25800C4F219
:1029C00002000168002241F002010160006800215C
:1029D00000F00200019001981D201D2410E041F23A
:1029E0005800C4F202000168002241F010010160A9
:1029F00000680F2100F01000009000983620362467
:102A0000FFF7DCF8204602B0BDE81040FFF7C4B87D
:102A100002B010BD90F83D1001291DD1022180F8AF
:102A20003D10016842F6FF32C868C4F201029142CB
:102A300040F00100C86011DCB1F1804F20D040F2BD
:102A40000040C4F2000081421AD040F60000C4F2F7
:102A50000000814214D020E00120704742F600407F
:102A6000C4F2010081420BD044F20000C4F2010024
:102A7000814205D043F20040C4F2010081420CD1F2
:102A800088680722C0F201020240062A4FF00000C7
:102A9000E3D0B2F5803F08BF7047086840F00100FE
:102AA000086000207047000090F83C20012A4FF099
:102AB000020200F0A88080B580F83D20D0F800C068
:102AC0008822DCF80830CFF6CE721A40CCF8082005
:102AD0000B686F2B0FDD1F22C0F21002934235DC12
:102AE000B3F5005F44DA702B00F08F80B3F5805FA0
:102AF00000F08080D1E02F2B34DD4F2B3DDC302BDC
:102B00006CD0402B40F0C980D1F804E0C968DCF8F3
:102B10002030DCF8202022F00102CCF82020DCF864
:102B2000182022F0F00242EA011123F00A0242EAE0
:102B30000E02CCF81810CCF82020DCF808104FF664
:102B40008872CFF6CF721140473151E03F21C0F279
:102B500010018B4238DC2021C0F210018B423DD0A5
:102B6000302137E0D3B3102B38D0202B36D094E06F
:102B70005ED0B3F1101F31D08FE0502B6BD0602BA3
:102B800040F08B80D1F804E0C968DCF82030DCF834
:102B9000202022F01002CCF82020DCF8182022F4AB
:102BA000704242EA013123F0A00242EA0E12CCF850
:102BB0001810CCF82020DCF808104FF68872CFF6F9
:102BC000CF721140673113E04021C0F210018B42F7
:102BD00004D07021C0F210018B425ED1DCF80810E5
:102BE0004FF68872CFF6CF721140194341F00701BA
:102BF000CCF808100022012180F83D10002180F857
:102C00003C10BDE8804010467047D1E901E3C96837
:102C1000DCF8082043EA0E0322F47F4243EA012154
:102C20001143CCF80810DCF8081041F07701DFE719
:102C3000D1E901E3C968DCF8082043EA0E0322F475
:102C40007F4243EA01211143CCF80810DCF8081058
:102C500041F48041CCE7D1F804E0C968DCF82030C9
:102C6000DCF8202022F00102CCF82020DCF818202B
:102C700022F0F00242EA011123F00A0242EA0E02B7
:102C8000CCF81810CCF82020DCF808104FF6887229
:102C9000CFF6CF7211405731AAE70122ABE700000F
:102CA00070470000F0B581B004460068C568066949
:102CB000B10716D515F0020113D06FF002010161C2
:102CC000012121778069800703D02046FFF7E8FFC4
:102CD00005E0204600F064FA204600F097FA002054
:102CE0002077700718D515F0040015D020686FF014
:102CF0000401016102212177806910F4407F03D033
:102D00002046FFF7CDFF05E0204600F049FA2046B7
:102D100000F07CFA00202077300717D515F0080066
:102D200014D020686FF00801016104212177C06987
:102D3000800703D02046FFF7B3FF05E0204600F0F0
:102D40002FFA204600F062FA00202077F00618D50E
:102D500015F0100015D020686FF0100101610821F6
:102D60002177C06910F4407F03D02046FFF798FF19
:102D700005E0204600F014FA204600F047FA002053
:102D80002077F00718BF15F0010006D020686FF01B
:102D900001010161204600F007FB16F4025F05F017
:102DA000800718BF002F02D1F00509D410E0206879
:102DB0006FF4025101612046FFF75EFDF00507D573
:102DC00037B120686FF4807101612046FFF752FD32
:102DD000700609D515F0400006D020686FF040015C
:102DE0000161204600F094FBB00609D515F02000E3
:102DF00006D020686FF0200101612046FFF73EFDFC
:102E0000F00209D515F4801006D020686FF4801107
:102E100001612046FFF736FDB00209D515F4001018
:102E200006D020686FF4001101612046FFF728FDED
:102E3000700209D515F4800006D020686FF4800177
:102E400001612046FFF720FD30020CD515F400008B
:102E500009D021686FF4000220460A6101B0BDE884
:102E6000F040FFF767BD01B0F0BD000090F83C30C6
:102E7000012B04BF022070474FEAB202052A00F27C
:102E80005281F0B5DFE812F0060046008E00D60051
:102E90001E0151010268146A136AA2F1804523F0F1
:102EA00001031362A5F5963596055368D2F818C04C
:102EB00046EA95258E68D1F800E024F00204072D3B
:102EC00044EA06040AD80126AE4016F0E50F1FBFFB
:102ED000CE6824F00C0426F004063443072D0BD8EA
:102EE000012606FA05F515F0E50F1FBFD1E90556D5
:102EF00023F440732B4333434FF68C75CFF6FE75A6
:102F00000CEA050646EA0E0653609661496851636D
:102F100014623CE1026843F20045146A136AC4F289
:102F2000010523F0100313625368D2F818C0AA42B7
:102F30008D68D1F800E024F0200444EA051405D09F
:102F400042F60045C4F20105AA4207D1CD686FF0F0
:102F5000400624F0C00406EA05152C43A2F1804582
:102F6000A5F59635960546EA9525072D0CD8012638
:102F700006FA05F515F0E50F1FBFD1E9055623F454
:102F80004063354343EA850348F6FF45CFF6FF65C6
:102F90000CEA050646EA0E2653609661496891637D
:102FA0001462F4E0026843F20045146A136AC4F242
:102FB000010523F4807313625368D2F81CC0AA423F
:102FC0008D68D1F800E024F4007444EA052405D0AB
:102FD00042F60045C4F20105AA4207D1CD6840F28D
:102FE000FF462D0224F44064B5432C43A2F18045F2
:102FF000A5F59635960546EA9525072D0CD80126A8
:1030000006FA05F515F0E50F1FBFD1E9055623F4C3
:103010004053354343EA05134FF68C75CFF6FE75E2
:103020000CEA050646EA0E065360D6614968D1638C
:103030001462ACE0026843F20045146A136AC4F2F9
:10304000010523F4805313625368D2F81CC0AA42CE
:103050008D68D1F800E024F4005444EA053405D02A
:1030600042F60045C4F20105AA4207D1CD6844F6F4
:10307000FF762D0324F44044B5432C43A2F1804550
:10308000A5F59635960546EA9525072D0CD8012617
:1030900006FA05F515F0E50F1FBFD1E9055623F433
:1030A0004043354343EA851348F6FF45CFF6FF65B5
:1030B0000CEA050646EA0E265360D661496811649B
:1030C000146264E00268D2F820C0136AA2F180465C
:1030D00023F480331362A6F5963697055368146D72
:1030E0000D68D1F808E047EA9626072E0AD801278E
:1030F00007FA06F616F0E50F1EBF4E6923F480337B
:1031000043EA06234FF68C76CFF6FE76033634403C
:1031100044EA0506536016652CF40037496847EA0F
:103120000E43916432E0012134E00268D2F820C0FD
:10313000136AA2F1804623F480131362A6F5963633
:1031400097055368156D0C68D1F808E047EA962694
:10315000072E0AD8012707FA06F616F0E50F1EBF5C
:103160004E6923F4802343EA862348F6FF46CFF6D0
:10317000FF6606F54076354045EA0426536016653D
:1031800049682CF4001747EA0E53D16413620021FA
:10319000BDE8F040002280F83C200846704700005F
:1031A00070470000002804BF0120704710B5044696
:1031B00090F83D0028B9002084F83C00204600F03B
:1031C00023F8022084F83D002068211D03F040FD13
:1031D000012084F8480084F83E0084F83F0084F819
:1031E000400084F8410084F8420084F8430084F8E9
:1031F000440084F8450084F8460084F8470084F8C9
:103200003D00002010BD0000704700007047000026
:1032100061B10A1F8B0743EA9202032A10D8DFE844
:1032200002F00212151800F13F0314E090F83E205E
:10323000012A1CBF01207047022280F83E2028E0AE
:1032400000F1430307E000F1400304E000F1410313
:1032500001E000F142031B78012B1CBF01207047E5
:10326000032A07D8DFE802F0020A0E12022280F8D1
:103270003F200EE0022280F843200AE0022280F87C
:10328000402006E0022280F8412002E0022280F87D
:1032900042204FEAB103032B4FF0010261D84AF6F6
:1032A000CC1C0068C0F6000C5CF823C0C36801F0B9
:1032B0001F0143EA0C03C360036A02FA01F123EA27
:1032C00001020262026A83050A43A0F18041A1F56E
:1032D000963143EA91210629026244D8012202FA7A
:1032E00001F111F0650F3ED0416C42F6FF32C4F29D
:1032F000010241F40041904241640FDCB0F1804F83
:103300001ED040F20041C4F20001884218D040F6BD
:103310000001C4F20001884212D01DE042F60041D3
:10332000C4F2010188420BD044F20001C4F2010151
:10333000884205D043F20041C4F2010188420BD11A
:1033400081680722C0F20102114006294FF00002F5
:1033500007D0B1F5803F04D00168002241F001019F
:1033600001601046704742F6FF31C4F20101884205
:10337000C4DD43F6FF71C4F20101884202DC42F66B
:103380000041D3E744F20001C4F201018842D7D0E2
:1033900044F60001C4F20101884202BF416C41F4CD
:1033A00000414164D8E70000006841F20001C4F226
:1033B0000001884218BF7047B0B540F20030C2F239
:1033C00000000068012829D0002852D140A13020F7
:1033D00000F0CCFE40F29C15C2F2000540F26C44B5
:1033E000AA68C2F200043EA12046FDF717F860204B
:1033F000214600F0BBFEEA683DA12046FDF70EF82D
:103400009020214600F0B2FED5E902010844C0F147
:1034100008023BA12046FDF701F826E019A1302063
:1034200000F0A4FE40F29C15C2F20005286806F0E8
:10343000FDF840F26C44C2F2000402460B4615A1AE
:103440002046FCF7EBFF6020214600F08FFE686805
:1034500006F0ECF802460B4613A12046FCF7DEFF0F
:103460009020214600F082FE14A4C020214600F0E6
:103470007DFE40F2FC10C2F20000BDE8B040FFF754
:10348000C9BA00BF20202020202020205061726176
:1034900020200000202020434E42523A252E326642
:1034A0002020202000000000202020564E42523ACA
:1034B000252E326620202020000000002020202021
:1034C000202020202020202020202020000000007C
:1034D0002020202020202020446174612020000032
:1034E000202020434E42523A256420202020000014
:1034F000202020564E42523A2564202020200000F1
:1035000020202049444C453A2564202020200000FA
:103510007047000090F88410012904BF0220704712
:103520002421C0F8881002681168136823F0010391
:10353000136021F000530021416613602022C0F87F
:10354000882080F88410084670470000704700000B
:103550007047000090F88420012A04BF02207047C1
:10356000B0B52422C0F888200268D0F864E0D2F810
:1035700000C01368BEF1000F23F0010313609368CD
:1035800023F0606341EA0301916019D09368916868
:103590004AF6FC1E490FC0F6000E4AF604251EF836
:1035A0000140C0F60005695CC3F34263E400B4FB6C
:1035B000F1F11EF80340EB5CE500B5FBF3F301E02D
:1035C00001210123A0F86A102021A0F86830C2F878
:1035D00000C0C0F88810002180F88410BDE8B04019
:1035E0000846704790F88420012A04BF02207047E3
:1035F000B0B52422C0F888200268D0F864E0D2F880
:1036000000C01368BEF1000F23F00103136093683C
:1036100023F0604341EA0301916019D093689168F7
:103620004AF6FC1E490FC0F6000E4AF604251EF8A5
:103630000140C0F60005695CC3F34263E400B4FBDB
:10364000F1F11EF80340EB5CE500B5FBF3F301E09C
:1036500001210123A0F86A102021A0F86830C2F8E7
:1036600000C0C0F88810002180F88410BDE8B04088
:103670000846704770470000704700007047000020
:10368000D0F88810D0F88C000843704770B50168F6
:1036900040F62F03CA69044608688E681340202B41
:1036A0000BD100F0200306F080555B1916D0616F36
:1036B00069B32046BDE87040084740F60F031A4240
:1036C0000CD00123C1F2000306EA030C40F22013E0
:1036D000C0F20043034013EB0C0328D1E36ED50680
:1036E00016D5012B14D110F0100311D01020086250
:1036F0008868400600F13A81B4F85C00B4F85E10C6
:10370000B4F85E20002A18BF884240F0368270BDAF
:10371000D30240F1E98116F4800300F0E5814FF413
:10372000801220460A62BDE87040FFF7A5BFD307AC
:1037300018BF10F4807307D001230B62D4F89030C7
:1037400043F00103C4F89030930706F0010E0AD548
:10375000BEF1000F07D002230B62D4F8903043F083
:103760000403C4F8903053070AD5BEF1000F07D008
:1037700004230B62D4F8903043F00203C4F8903075
:1037800013070CD500F0200353EA0C0307D00823DD
:103790000B62D4F8903043F00803C4F8903013055E
:1037A0000BD510F0806308D04FF400630B62D4F89F
:1037B000903043F02003C4F89030D4F89030002BC0
:1037C000A5D092060AD500F0200006F0805280189D
:1037D00004D0626F12B1204690472168D4F890005F
:1037E000896800F0280001F04001401806D1204609
:1037F000FFF744FF0020C4F8900070BD206850E837
:10380000000F216820F4907041E80002DAB12068CE
:1038100050E8000F216820F4907041E8000292B156
:10382000206850E8000F216820F4907041E8000201
:103830004AB1206850E8000F216820F4907041E8F8
:103840000002002ADAD14FF6FE70CEF6FF7000BFFC
:10385000216851E8021F2268014042E80213C3B107
:10386000216851E8021F2268014042E8021383B137
:10387000216851E8021F2268014042E8021343B167
:10388000216851E8021F2268014042E80213002B20
:10389000DED1E06E012824D1206850E8000F2168B5
:1038A00020F0100041E80002DAB1206850E8000F73
:1038B000216820F0100041E8000292B1206850E831
:1038C000000F216820F0100041E800024AB1206892
:1038D00050E8000F216820F0100041E80002002AA3
:1038E000DAD12020C4F88C000020E06621686067EF
:1038F0008868400640F1C681206850E8020F2168C0
:1039000020F0400041E80202DAB1206850E8020FDE
:10391000216820F0400041E8020292B1206850E89E
:10392000020F216820F0400041E802024AB12068FD
:1039300050E8020F216820F0400041E80202002A0E
:10394000DAD1D4F88000002800F09C8146F6B171ED
:10395000C0F600018163FDF789FF00283FF4D7AE70
:10396000D4F88000816BBDE870400847D4F880002F
:10397000006841688AB2002A3FF4C9AEB4F85C30EE
:103980009A42BFF4C4AEA4F85E100068800600F14D
:103990009E80206850E8000F216820F4807041E884
:1039A0000002DAB1206850E8000F216820F480702E
:1039B00041E8000292B1206850E8000F216820F42D
:1039C000807041E800024AB1206850E8000F216889
:1039D00020F4807041E80002002ADAD1206850E823
:1039E000020F216820F0010041E80202BAB320680A
:1039F00050E8020F216820F0010041E8020272B392
:103A0000206850E8020F216820F0010041E802021E
:103A10002AB3206850E8020F216820F0010041E835
:103A20000202002ADAD11AE0206850E8020F216869
:103A300020F0400041E80202DAB1206850E8020FAD
:103A4000216820F0400041E8020292B1206850E86D
:103A5000020F216820F0400041E802024AB12068CC
:103A600050E8020F216820F0400041E80202002ADD
:103A7000DAD12020C4F88C000020E066206850E8ED
:103A8000000F216820F0100041E80002DAB1206840
:103A900050E8000F216820F0100041E8000292B1C8
:103AA000206850E8000F216820F0100041E8000273
:103AB0004AB1206850E8000F216820F0100041E86A
:103AC0000002002ADAD1D4F88000FDF797FE022028
:103AD0002067B4F85C00B4F85E10401A81B220464A
:103AE000BDE87040FFF732BD110606D500F0800139
:103AF00006F40003C91840F0C080510631D510F01B
:103B000040012ED0206850E8000F216820F04000CE
:103B100041E80002DAB1206850E8000F216820F087
:103B2000400041E8000292B1206850E8000F21688F
:103B300020F0400041E800024AB1206850E8000F40
:103B4000216820F0400041E80002002ADAD120205C
:103B50000021C4F888002046A167BDE8704000F04D
:103B600023BA110240F1938010F0804100F08F8061
:103B70002046BDE87040FFF77DBD401A216851E83E
:103B8000001F226821F4907142E80013DBB1216824
:103B900051E8001F226821F4907142E8001393B1AC
:103BA000216851E8001F226821F4907142E8001357
:103BB0004BB1216851E8001F226821F4907142E85E
:103BC0000013002BDAD14FF6FE71CEF6FF7100BF65
:103BD000226852E8022F23680A4043E80226C6B151
:103BE000226852E8022F23680A4043E8022686B181
:103BF000226852E8022F23680A4043E8022646B1B1
:103C0000226852E8022F23680A4043E80226002E69
:103C1000DED12021C4F88C100021E166616700BF6D
:103C2000216851E8001F226821F0100142E80013CA
:103C3000DBB1216851E8001F226821F0100142E841
:103C4000001393B1216851E8001F226821F0100190
:103C500042E800134BB1216851E8001F226821F0AF
:103C6000100142E80013002BDAD1022281B2204673
:103C70002267BDE87040FFF769BCA16F00297FF49F
:103C800018AD44E52046BDE87040FFF7F7BCD10110
:103C90007FF53DADB0F1FF3FC8BF70BD2046BDE828
:103CA0007040FFF755BC000010B5D0B10446D0F805
:103CB000880028B9002084F88400204600F026F807
:103CC0002420C4F888002068A16A026822F001025A
:103CD000026011B1204603F045F8204603F030FEA3
:103CE00008B1012010BD2168486820F49040486068
:103CF000886820F02A008860086840F001022046A9
:103D00000A60BDE8104003F09FB8000010B596B0FF
:103D10000446684608303C21FCF73BFE206843F629
:103D20000001C4F20101884201D016B010BD01208B
:103D30000090002468460194FEF718F8002818BF88
:103D4000FDF756FD41F24C00C4F20200416941F416
:103D500080414161416901F48041119111990168EB
:103D600041F001010160006811A900F0010011900B
:103D700011984FF4C06011900220CDE91204072081
:103D800015904FF090401494FDF7C4FD25200121BB
:103D90000022FDF713FF2520FDF7FEFE16B010BD33
:103DA000D0F88C30202B07D100294FF0010318BF29
:103DB000002A04D11846704702231846704780B580
:103DC0000023C366D0F800C048F20003C4F2000329
:103DD0009C4533D0DCF804301B022FD5036853E830
:103DE00000CFD0F800E04CF080634EE8003CBCF11E
:103DF000000F23D0036853E800CFD0F800E04CF068
:103E000080634EE8003CBCF1000F17D0036853E814
:103E100000CFD0F800E04CF080634EE8003CBCF1ED
:103E2000000F0BD0036853E800CFD0F800E04CF04F
:103E300080634EE8003CBCF1000FCFD103F0C2FE1E
:103E4000002080BD006843F60001C4F201018842F1
:103E500018BF704780B540F2461EC2F2000EBEF990
:103E60000010002924D440F24412C2F2000289B2A8
:103E700013784A0404D40D2B0CD141F4804215E090
:103E800048F2000C0022CFF6FF7C0A2B08BF41EA63
:103E90000C020BE00A4640F27C006FF39F32C2F244
:103EA000000083544A1CC62988BF0022AEF80020B7
:103EB000BDE88040704700002DE9F04381B0044622
:103EC000D0F8880020281FD1894600294FF0010032
:103ED00067D01646002A64D00020C4F89000212044
:103EE0001D46C4F88800FDF7EFFDA4F85460A4F85F
:103EF0005660A1680646B1F5805F01D1206938B1EE
:103F0000C8464FF0000905E0022001B0BDE8F0838B
:103F10004FF00008B4F85610206839B36F1C0DE05C
:103F2000B8F1000F1BD018F8011B8162B4F85610CD
:103F30000139A4F85610B4F85610B9B1C169090690
:103F4000EED4002FFAD0FDF7BFFD01464FF003007D
:103F500025B3891BA94221D820680168EEE739F80A
:103F6000021B4FF000086FF35F21DEE7C1694906CD
:103F700013D46F1C03E000BFC16949060DD4002FA4
:103F8000FAD0FDF7A1FD01464FF0030035B1891BC2
:103F9000A94203D820680168EEE700202021C4F878
:103FA000881001B0BDE8F08370470000FEE7000014
:103FB000B0B5044640F2184500200021C4F60005C3
:103FC00000F0D4FAD5F8FC03296980B241F40071FD
:103FD0002961296941F480712961296841F0200132
:103FE00029602221C5F8FC13296941F020012961CB
:103FF00000BF00BF00BF296841F020012960296887
:1040000041F48071296000BF00BF00BF296841F4FE
:1040100000712960C5F8FC034FF49630D5F8FC1305
:104020002A6989B242F400722A612A68043842F48B
:1040300080722A602A6842F020022A60C5F8FC4398
:104040002A6942F020022A6100BF00BF00BF2A682F
:1040500042F020022A602A6842F480722A6000BF7F
:1040600000BF00BF2A6842F400722A60C5F8FC1342
:10407000D5F8FC132A6989B242F400722A612A68D1
:1040800042F480722A602A6842F020022A60C5F851
:10409000FC432A6942F020022A6100BF00BF00BF32
:1040A0002A6842F020022A602A6842F480722A605C
:1040B00000BF00BF00BF2A6842F400722A60C5F842
:1040C000FC13D5F8FC132A6989B242F400722A6104
:1040D0002A6842F480722A602A6842F020022A602C
:1040E000C5F8FC432A6942F020022A6100BF00BFE4
:1040F00000BF2A6842F020022A602A6842F48072D7
:104100002A6000BF00BF00BF2A6842F400722A6024
:10411000C5F8FC13D5F8FC132A6989B242F4007281
:104120002A612A6842F480722A602A6842F02002DA
:104130002A60C5F8FC432A6942F020022A6100BFC8
:1041400000BF00BF2A6842F020022A602A6842F4B9
:1041500080722A6000BF00BF00BF2A6842F400726C
:104160002A60C5F8FC137FF459AFB0BD0A78002A65
:1041700008BF70472DE9F04149F2E47804464D1C30
:10418000002740F23F16C0F6000800BFA2F1200051
:10419000C1B2490051FA80F008EB0012B1B22046DA
:1041A00000F00AF8EA5D22B1103E132F07F1010773
:1041B000ECD3BDE8F04170472DE9F04F81B040F2FB
:1041C0001847144688468246C4F6000700F0CEF928
:1041D00040F2000B40F2780600254FF02209C2F2AF
:1041E000000BC2F2000600BFD7F8FC03396980B2A9
:1041F00041F400713961396941F48071396139687C
:1042000041F020013960C7F8FC93396941F0200181
:10421000396100BF00BF00BF396841F0200139603B
:10422000396841F48071396000BF00BF00BF396850
:1042300041F400713960C7F8FC03002034F8151010
:10424000C140C907314608BF59460A88D7F8FC1350
:104250003B6989B243F400733B613B6843F480736C
:104260003B603B6843F020033B60C7F8FC233A699E
:1042700042F020023A6100BF00BF00BF3A6842F03E
:1042800020023A603A6842F480723A6000BF00BF90
:1042900000BF3A6842F400723A60C7F8FC1334F881
:1042A0001510421CD140C907314608BF59460A883B
:1042B000D7F8FC133B69023043F400733B613B6861
:1042C00089B243F480733B603B68102843F02003BD
:1042D0003B60C7F8FC233A6942F020023A6100BF14
:1042E00000BF00BF3A6842F020023A603A6842F4E8
:1042F00080723A6000BF00BF00BF3A6842F40072AB
:104300003A60C7F8FC1399D10AF1010A5FFA8AF002
:10431000414600F02BF90135182D7FF465AF01B04F
:10432000BDE8F08F2DE9F04F8BB0002641F24C0034
:104330000596C4F20200016840F2184541F00401FC
:1043400001600168C4F6000501F0040106910699B8
:10435000016801AC41F001010160016840F61409F7
:1043600001F00101069106990168C4F6000941F0C7
:10437000020101600068214600F0020006900698E4
:104380004FF44870019001200290A5F11800012718
:10439000CDE90366FDF7BEFA4FF48070CDE9010761
:1043A0004FF090402146CDE90366FDF7B3FA4FF692
:1043B000FF7005F57A7406904FF0030806A92046B1
:1043C0000A964FF6FF7B0797CDE90868FDF7A2FA3A
:1043D0004FF6004ACFF6FF7A55F80A0006A940F4D6
:1043E000807045F80A0028684FF6FF7740F408709F
:1043F0002860286940F400702861286940F48070C2
:104400002861286840F020002860C9F80060286909
:1044100040F02000286100BF00BF00BF286840F0C6
:1044200020002860286840F48070286020460A96A2
:10443000CDF818B0CDF82480CDE90766FDF76AFA0B
:104440004FF6104BCFF6FF7B55F80B0007A940F451
:10445000807045F80B0000BF00BF00BFD5F8F8938F
:1044600055F80A0040F4807045F80A00012081E800
:10447000410106A920460A960697FDF74BFA2868DF
:1044800048F2302140F40070286040F2AC10C2F2D3
:104490000000A0F800900088884202D100F010FAD5
:1044A00001E001F013F82869002640F4007028614B
:1044B00028694FF6FF7840F48070286128684FF033
:1044C000030940F02000286040F61400C4F6000004
:1044D0000660286906A940F02000286100BF00BFDF
:1044E00000BF286840F020002860286840F48070F1
:1044F000286020460A96CDE90686CDE90869FDF7D1
:1045000009FA55F80B0007A940F4807045F80B0034
:1045100000BF00BF00BFD5F8F87355F80A0040F49B
:10452000807045F80A00012081E8410206A9204672
:104530000A96CDF81880FDF7EDF9286840F4007070
:10454000286040F2AC10C2F2000007800BB0BDE85A
:10455000F08F000081B0ADF80200BDF8020040F21B
:104560000001C2F20001088001B0704740F2184219
:10457000C4F60002D2F8FCC3136943F4007313615C
:10458000136943F480731361136843F020031360CD
:104590002023C2F8FC33136943F02003136100BFEA
:1045A00000BF00BF136843F020031360136843F497
:1045B00080731360C2F8FC03106940F020001061A2
:1045C00000BF00BF00BF106840F0200010601068FE
:1045D00040F4807010601FFA8CF0C2F8FC03D2F82F
:1045E000FC03136980B243F400731361136943F44D
:1045F00080731361136843F0200313602123C2F812
:10460000FC33136943F02003136100BF00BF00BFF8
:10461000136843F020031360136843F4807313603E
:10462000C2F8FC13116941F02001116100BF00BF05
:1046300000BF116841F020011160116841F48071E0
:104640001160C2F8FC03704781B0ADF80200BDF8FC
:10465000020040F27801C2F20001088001B0704708
:1046600070B586B0002541F24C00CDE90455C4F286
:104670000200016801AC41F02001016001680126DF
:1046800001F0200100910099016841F001010160F1
:10469000016801F0010100910099016841F00201F7
:1046A00001600068214600F00200009000984FF081
:1046B0009040CDE901650396FDF72CF9072001A98B
:1046C00061C140F20040C4F600002146FDF722F926
:1046D00006B070BDB0B594B040F2B01040F20045E5
:1046E0000021C2F200006323C4F200050E91CDE95F
:1046F0000C11CDE90911CDE90711CDE90511CDE97D
:104700000311CDE9011140F28F12C0E902130161DA
:104710008021C0E900528161FEF70EF9002818BF20
:10472000FDF766F84FF480500B9040F2B010C2F2E3
:1047300000000BA9FEF7B8F9002818BFFDF758F8DC
:1047400040F2B010C2F20000FEF72CFD002818BFA6
:10475000FDF74EF840F2B0100024C2F2000008A9A4
:1047600008940A94FEF792F8002818BFFDF740F865
:10477000CDE901440394059440F2B014C2F2000460
:1047800001A920460422FEF771FB002818BFFDF79F
:104790002FF82068A84201D014B0B0BD41F24C00FF
:1047A000C4F20200016841F00101016000680021CB
:1047B00000F001000F900F9880200F9002201090C1
:1047C000CDE9111113900FA94FF09040FDF7A2F819
:1047D00014B0B0BD10B584B040F2FC1041F200013D
:1047E0000024C2F20000C4F2000142F20F730294EE
:1047F00040F21F3280E81600C3608461FEF79CF827
:10480000002818BFFCF7F4FF40F2FC10C2F20000D1
:1048100001A901940394FEF739F8002818BFFCF7AA
:10482000E7FF04B010BD000080B540F2482043F619
:104830000001C2F20000C4F2010100234FF00C0C91
:104840004FF4E13280E80E00C0E90333C0E905C34C
:10485000C0E90733C0E90933FFF726FA002818BF7B
:10486000FCF7C6FF40F24820C2F200000021FEF72C
:10487000B9FE002818BFFCF7BBFF40F24820C2F287
:1048800000000021FEF766FE002818BFFCF7B0FF0D
:1048900040F24820C2F20000FEF73CFE002818BF9C
:1048A000FCF7A6FF40F27C00C2F20000C821FCF732
:1048B00070F880BDFEE70000FEE7000070470000D2
:1048C00080B540F21840C4F60000D0F8FC3301690E
:1048D000002241F40071016101694FF0010C41F4C3
:1048E0008071016101684FF4407E41F02001016058
:1048F000C0F8FC23016941F02001016100BF00BF45
:1049000000BF016841F020010160016841F480713D
:104910000160C0F8FCC3016941F02001016100BFE2
:1049200000BF00BF016841F020010160016841F44F
:104930008071016099B2C0F8FC13D0F8FC330169B2
:1049400041F400710161016941F480710161016804
:1049500041F020010160C0F8FCC3016941F0200171
:10496000016100BF00BF00BF016841F0200101608C
:10497000016841F480710160C0F8FC23016941F0D5
:104980002001016100BF00BF00BF016841F02001AC
:104990000160016841F48071016099B2C0F8FC13B4
:1049A000D0F8FC23016941F400710161016941F40F
:1049B00080710161016841F0200101601021C0F89F
:1049C000FC13016941F02001016100BF00BF00BF7D
:1049D000016841F020010160016841F480710160CB
:1049E00041F29071C0F8FC13016941F020010161AE
:1049F00000BF00BF00BF016841F0200101600168F5
:104A000041F48071016091B2C0F8FC13D0F8FC232E
:104A1000016941F400710161016941F48071016132
:104A2000016841F0200101606021C0F8FC130169B8
:104A300041F02001016100BF00BF00BF016841F0EB
:104A400020010160016841F4807101604FF41C5144
:104A5000C0F8FC13016941F02001016100BF00BFF3
:104A600000BF016841F020010160016841F48071DC
:104A7000016091B2C0F8FC13D0F8FC23016941F445
:104A800000710161016941F480710161016841F0C7
:104A9000200101606121C0F8FC13016941F020018F
:104AA000016100BF00BF00BF016841F0200101604B
:104AB000016841F480710160C0F8FCC301694FF0E6
:104AC000030C41F02001016100BF00BF00BF01687D
:104AD00041F020010160016841F48071016091B2F0
:104AE000C0F8FC13D0F8FC23016992B241F40071C4
:104AF0000161016941F480710161016841F02001A7
:104B000001604621C0F8FC13016941F020010161F8
:104B100000BF00BF00BF016841F0200101600168D3
:104B200041F4807101600221C0F8FC13036943F075
:104B30002003036100BF00BF00BF036843F02003F0
:104B40000360036843F480730360C0F8FC23D0F86B
:104B5000FC23036992B243F400730361036943F4D5
:104B600080730361036843F0200303601323C0F8DC
:104B7000FC33036943F02003036100BF00BF00BFA3
:104B8000036843F020030360036843F48073036009
:104B900048F21003C0F8FC33036943F020030361BB
:104BA00000BF00BF00BF036843F020030360036839
:104BB00043F480730360C0F8FC23D0F8FC2303693E
:104BC00092B243F400730361036943F48073036199
:104BD000036843F0200303601223C0F8FC33036929
:104BE00043F02003036100BF00BF00BF036843F030
:104BF00020030360036843F48073036048F2FE03FC
:104C0000C0F8FC33036943F02003036100BF00BF19
:104C100000BF036843F020030360036843F480731C
:104C20000360C0F8FC23D0F8FC23036943F400734D
:104C30000361036943F480730361036843F0200355
:104C40000360C0F8FC13016941F02001016100BF5D
:104C500000BF00BF016841F020010160016841F41C
:104C6000807101604FF4A061C0F8FC13016941F04C
:104C70002001016100BF00BF00BF016841F02001B9
:104C80000160016841F48071016091B2C0F8FC13C9
:104C9000D0F8FC23016941F400710161016941F41C
:104CA00080710161016841F020010160C0F8FCC31E
:104CB000016941F02001016100BF00BF00BF016830
:104CC00041F020010160016841F48071016041F20E
:104CD0003001C0F8FC13016941F02001016100BFFF
:104CE00000BF00BF016841F020010160016841F48C
:104CF0008071016091B2C0F8FC13D0F8FC330169F7
:104D000040F2033241F400710161016941F48071A4
:104D10000161016841F0200101603021C0F8FC13FD
:104D2000016941F02001016100BF00BF00BF0168BF
:104D300041F020010160016841F480710160C0F818
:104D4000FC23016941F02001016100BF00BF00BFE9
:104D5000016841F020010160016841F48071016047
:104D600099B2C0F8FC13D0F8FC13036989B243F47C
:104D700000730361036943F480730361036843F0C4
:104D8000200303603123C0F8FC33036943F02003A0
:104D9000036100BF00BF00BF036843F0200303604E
:104DA000036843F480730360C0F8FC23036943F095
:104DB0002003036100BF00BF00BF036843F020036E
:104DC0000360036843F480730360C0F8FC13D0F8F9
:104DD000FC13036989B243F400730361036943F46C
:104DE00080730361036843F0200303603223C0F83B
:104DF000FC33036943F02003036100BF00BF00BF21
:104E0000036843F020030360036843F48073036086
:104E1000C0F8FC23036943F02003036100BF00BF17
:104E200000BF036843F020030360036843F480730A
:104E30000360C0F8FC13D0F8FC13036989B243F493
:104E400000730361036943F480730361036843F0F3
:104E5000200303603323C0F8FC33036943F02003CD
:104E6000036100BF00BF00BF036843F0200303607D
:104E7000036843F480730360C0F8FCE3036943F004
:104E80002003036100BF00BF00BF036843F020039D
:104E90000360036843F480730360C0F8FC13D0F828
:104EA000FC13036989B243F400730361036943F49B
:104EB00080730361036843F0200303603423C0F868
:104EC000FC33036943F02003036100BF00BF00BF50
:104ED000036843F020030360036843F480730360B6
:104EE000C0F8FCC3036943F02003036100BF00BFA7
:104EF00000BF036843F020030360036843F480733A
:104F00000360C0F8FC13D0F8FC13036989B243F4C2
:104F100000730361036943F480730361036843F022
:104F2000200303603523C0F8FC33036943F02003FA
:104F3000036100BF00BF00BF036843F020030360AC
:104F4000036843F480730360C0F8FC23036943F0F3
:104F50002003036100BF00BF00BF036843F02003CC
:104F60000360036843F480730360C0F8FC13D0F857
:104F7000FC13036989B243F400730361036943F4CA
:104F800080730361036843F0200303603623C0F895
:104F9000FC33036943F02003036100BF00BF00BF7F
:104FA000036843F020030360036843F480730360E5
:104FB0001423C0F8FC33036943F02003036100BFEE
:104FC00000BF00BF036843F020030360036843F49D
:104FD00080730360C0F8FC13D0F8FC13036989B236
:104FE00043F400730361036943F48073036103684E
:104FF00043F0200303603723C0F8FC33036943F018
:105000002003036100BF00BF00BF036843F020031B
:105010000360036843F480730360C0F8FC230369F2
:1050200043F02003036100BF00BF00BF036843F0EB
:1050300020030360036843F480730360C0F8FC132B
:10504000D0F8FC13036989B243F400730361036968
:1050500043F480730361036843F020030360382343
:10506000C0F8FC33036943F02003036100BF00BFB5
:1050700000BF036843F020030360036843F48073B8
:105080000360C0F8FC23036943F02003036100BF01
:1050900000BF00BF036843F020030360036843F4CC
:1050A00080730360C0F8FC13D0F8FC13036989B265
:1050B00043F400730361036943F48073036103687D
:1050C00043F0200303603923C0F8FC33036943F045
:1050D0002003036100BF00BF00BF036843F020034B
:1050E0000360036843F480730360C0F8FC23036922
:1050F00043F02003036100BF00BF00BF036843F01B
:1051000020030360036843F480730360C0F8FC135A
:10511000D0F8FC13036989B243F400730361036997
:1051200043F480730361036843F0200303603A2370
:10513000C0F8FC33036943F02003036100BF00BFE4
:1051400000BF036843F020030360036843F48073E7
:105150000360C0F8FCE3036943F02003036100BF70
:1051600000BF00BF036843F020030360036843F4FB
:1051700080730360C0F8FC13D0F8FC13036989B294
:1051800043F400730361036943F4807303610368AC
:1051900043F0200303603B23C0F8FC33036943F072
:1051A0002003036100BF00BF00BF036843F020037A
:1051B0000360036843F480730360C0F8FCC30369B1
:1051C00043F02003036100BF00BF00BF036843F04A
:1051D00020030360036843F480730360C0F8FC138A
:1051E000D0F8FC13036989B243F4007303610369C7
:1051F00043F480730361036843F0200303603C239E
:10520000C0F8FC33036943F02003036100BF00BF13
:1052100000BF036843F020030360036843F4807316
:105220000360C0F8FC23036943F02003036100BF5F
:1052300000BF00BF036843F020030360036843F42A
:1052400080730360C0F8FC13D0F8FC13036989B2C3
:1052500043F400730361036943F4807303610368DB
:1052600043F0200303603D23C0F8FC33036943F09F
:105270002003036100BF00BF00BF036843F02003A9
:105280000360036843F4807303604FF4A053C0F8D5
:10529000FC33036943F02003036100BF00BF00BF7C
:1052A000036843F020030360036843F480730360E2
:1052B000C0F8FC13D0F8FC13036989B243F40073FF
:1052C0000361036943F480730361036843F02003BF
:1052D00003609223C0F8FC33036943F020030361A9
:1052E00000BF00BF00BF036843F0200303600368F2
:1052F00043F4807303604FF40073C0F8FC33036918
:1053000043F02003036100BF00BF00BF036843F008
:1053100020030360036843F480730360C0F8FC1348
:10532000D0F8FC13036989B243F400730361036985
:1053300043F480730361036843F020030360932305
:10534000C0F8FC33036943F02003036100BF00BFD2
:1053500000BF036843F020030360036843F48073D5
:105360000360C0F8FC23026942F02002026100BF22
:1053700000BF00BF026842F020020260026842F4EF
:1053800080720260C0F8FC13D0F8FC13026989B285
:1053900042F400720261026942F4807202610268A2
:1053A00042F0200202609022C0F8FC23026942F021
:1053B0002002026100BF00BF00BF026842F020026D
:1053C0000260026842F48072026040F60D02C0F88A
:1053D000FC23026942F02002026100BF00BF00BF4F
:1053E000026842F020020260026842F480720260A9
:1053F000C0F8FC13D0F8FC13026989B242F40072C1
:105400000261026942F480720261026842F0200285
:105410000260C0F8FCC3026942F02002026100BFD2
:1054200000BF00BF026842F020020260026842F43E
:105430008072026041F21802C0F8FC23026942F057
:105440002002026100BF00BF00BF026842F02002DC
:105450000260026842F480720260C0F8FC13D0F867
:10546000FC13026989B242F400720261026942F4DB
:1054700080720261026842F0200202600722C0F8D6
:10548000FC23026942F02002026100BF00BF00BF9E
:10549000026842F020020260026842F480720260F8
:1054A00040F27312C0F8FC23026942F0200202614C
:1054B00000BF00BF00BF026842F020020260026825
:1054C00042F480720260C0F8FC1380BD2DE9F04FF9
:1054D00081B040F21844C4F60004D4F8FC032169FA
:1054E00080B241F40071216121694FF0120941F449
:1054F000807121612168002541F020012160E321B4
:10550000C4F8FC132169112641F02001216100BF7C
:1055100000BF00BF21684FF0130B41F02001216054
:105520002168102741F48071216043F20801C4F81A
:10553000FC1321694FF0070841F02001216100BFF1
:1055400000BF00BF216841F020012160216841F4C3
:1055500080712160C4F8FC03D4F8FC03216980B297
:1055600041F400712161216941F480712161216858
:1055700041F020012160E721C4F8FC13216941F0CA
:105580002001216100BF00BF00BF216841F0200160
:105590002160216841F480712160C4F8FC93216985
:1055A00041F02001216100BF00BF00BF216841F030
:1055B00020012160216841F480712160C4F8FC035E
:1055C000D4F8FC03216980B241F4007121612169A2
:1055D00041F480712161216841F020012160EF21B7
:1055E000C4F8FC13216941F02001216100BF00BF14
:1055F00000BF216841F020012160216841F48071E1
:10560000216041F23121C4F8FC13216941F02001ED
:10561000216100BF00BF00BF216841F0200121606F
:10562000216841F480712160C4F8FC03D4F8FC03C4
:10563000216980B241F400712161216941F48071D6
:105640002161216841F0200121600121C4F8FC138F
:10565000216941F02001216100BF00BF00BF216826
:1056600041F020012160216841F480712160C4F87B
:10567000FC53216941F02001216100BF00BF00BF40
:10568000216841F020012160216841F4807121608E
:10569000C4F8FC03D4F8FC03216980B241F4007122
:1056A0002161216941F480712161216841F020016B
:1056B00021600221C4F8FC13216941F0200121611D
:1056C00000BF00BF00BF216841F0200121602168B8
:1056D00041F4807121604FF4E061C4F8FC1321694A
:1056E00041F02001216100BF00BF00BF216841F0EF
:1056F00020012160216841F480712160C4F8FC031D
:10570000D4F8FC03216980B241F400712161216960
:1057100041F480712161216841F020012160032161
:10572000C4F8FC13216941F02001216100BF00BFD2
:1057300000BF216841F020012160216841F480719F
:10574000216041F23001C4F8FC13216941F02001CD
:10575000216100BF00BF00BF216841F0200121602E
:10576000216841F480712160C4F8FC03D4F8FC0383
:10577000216980B241F400712161216941F4807195
:105780002161216841F0200121600421C4F8FC134B
:10579000216941F02001216100BF00BF00BF2168E5
:1057A00041F020012160216841F480712160C4F83A
:1057B000FC53216941F02001216100BF00BF00BFFF
:1057C000216841F020012160216841F4807121604D
:1057D000C4F8FC03D4F8FC03216980B241F40071E1
:1057E0002161216941F480712161216841F020012A
:1057F00021600821C4F8FC13216941F020012161D6
:1058000000BF00BF00BF216841F020012160216876
:1058100041F48071216040F20721C4F8FC13216932
:1058200041F02001216100BF00BF00BF216841F0AD
:1058300020012160216841F480712160C4F8FC03DB
:10584000D4F8FC03216980B241F40071216121691F
:1058500041F480712161216841F02001216009211A
:10586000C4F8FC13216941F02001216100BF00BF91
:1058700000BF216841F020012160216841F480715E
:105880002160C4F8FC53216941F02001216100BF6F
:1058900000BF00BF216841F020012160216841F470
:1058A00080712160C4F8FC03D4F8FC03216980B244
:1058B00041F400712161216941F480712161216805
:1058C00041F0200121600A21C4F8FC13216941F054
:1058D0002001216100BF00BF00BF216841F020010D
:1058E0002160216841F480712160C4F8FC53216972
:1058F00041F02001216100BF00BF00BF216841F0DD
:1059000020012160216841F480712160C4F8FC030A
:10591000D4F8FC03216980B241F40071216121694E
:1059200041F480712161216841F0200121600C2146
:10593000C4F8FC13216941F02001216100BF00BFC0
:1059400000BF216841F020012160216841F480718D
:105950002160C4F8FC53216941F02001216100BF9E
:1059600000BF00BF216841F020012160216841F49F
:1059700080712160C4F8FC03D4F8FC03216980B273
:1059800041F400712161216941F480712161216834
:1059900041F0200121600D21C4F8FC13216941F080
:1059A0002001216100BF00BF00BF216841F020013C
:1059B0002160216841F480712160C4F8FC532169A1
:1059C00041F02001216100BF00BF00BF216841F00C
:1059D00020012160216841F480712160C4F8FC033A
:1059E000D4F8FC03216980B241F40071216121697E
:1059F00041F480712161216841F0200121600F2173
:105A0000C4F8FC13216941F02001216100BF00BFEF
:105A100000BF216841F020012160216841F48071BC
:105A20002160C4F8FC53216941F02001216100BFCD
:105A300000BF00BF216841F020012160216841F4CE
:105A400080712160C4F8FC03D4F8FC03216980B2A2
:105A500041F400712161216941F480712161216863
:105A600041F0200121601021C4F8FC13216941F0AC
:105A70002001216100BF00BF00BF216841F020016B
:105A80002160216841F480712160C4F8FC532169D0
:105A900041F02001216100BF00BF00BF216841F03B
:105AA00020012160216841F480712160C4F8FC0369
:105AB000D4F8FC03216980B241F4007121612169AD
:105AC00041F480712161216841F020012160C4F816
:105AD000FC63216941F02001216100BF00BF00BFCC
