:020000040800F2
:10000000880A0020D5020008ED440008953C00084D
:10001000E9440008E9170008F17700080000000033
:10002000000000000000000000000000516A00080D
:10003000ED17000800000000F1440008556A0008B0
:10004000EF020008EF020008EF020008EF020008CC
:10005000EF020008EF020008EF020008EF020008BC
:10006000EF020008EF020008EF020008EF020008AC
:10007000EF020008EF020008EF020008EF0200089C
:10008000EF02000800000000EF020008EF02000885
:10009000EF020008EF020008EF020008EF0200087C
:1000A000EF020008EF0200086D6A0008EF02000886
:1000B000EF020008EF020008EF020008EF0200085C
:1000C000EF020008EF020008EF020008EF0200084C
:1000D000EF02000899770008EF020008EF0200081D
:1000E000EF020008EF020008EF020008EF0200082C
:1000F000EF020008EF020008EF0200080000000015
:1001000000000000EF02000800000000EF020008FD
:10011000EF02000800000000796A0008EF02000802
:10012000EF020008EF020008EF020008EF020008EB
:10013000EF0200080000000000000000EF020008CD
:10014000EF020008EF0200080000000000000000BD
:10015000000000000000000000000000000000009F
:10016000000000000000000000000000EF02000896
:10017000EF02000800000000000000000000000086
:1001800000000000EF020008000000000000000076
:10019000000000000000000000000000000000005F
:1001A0000000000000000000EF020008EF0200085D
:1001B000EF020008EF020008EF0200080000000054
:1001C00000000000EF020008000000000000000036
:1001D000EF020008EF02000800F002F800F06BF8F0
:1001E00014A696E8000CB244B344DA4501D100F0FD
:1001F00062F8BAE80F000FA696E83000A5EB0405F8
:1002000004EB0607AAEB0704A7F101074FEA15154F
:100210004FEA3414A4F10104AC4201D300F04BF8CE
:1002200013F0010F18BFFB1A43F0010300F001F8AF
:10023000DBE71847589D0000789D0000103A24BF66
:1002400078C878C1FAD8520724BF30C830C144BF3B
:1002500004680C6070470000704700000023002411
:1002600000250026103A28BF78C1FBD8520728BFC6
:1002700030C148BF0B607047662908F00B856429C0
:1002800000F00A81732900F05687002070471FB5DF
:1002900008F0F3FC00F0AAFF04000020002108F0A1
:1002A0003BFA401C60600020002108F01FFAE0606B
:1002B0001FBD10B510BD01F05FFA1146FFF7E7FF53
:1002C00007F0ECFC01F086FA03B4FFF7F2FF03BC81
:1002D00007F090FA0948804709480047FEE7FEE723
:1002E000FEE7FEE7FEE7FEE7FEE7FEE7FEE7FEE7E6
:1002F00004480549054A064B70470000596A000842
:10030000D901000888040020880A002088060020FF
:100310008806002053EA020C00F069802DE9F04BBA
:100320004FF00006002B1FBFB3FA83F503FA05F464
:1003300024FA05F65E4012BF1643B2FA82F502FABD
:1003400005F4C5F120051EBF22FA05FC44EA0C04A1
:10035000203556EA044C4FEA144418BF641C4FF091
:1003600000084FF00009904271EB030C39D30029CB
:1003700019BFB1FA81F701FA07F6B0FA80F700FA6F
:1003800007F6C7F120071EBF20FA07FC46EA0C0655
:100390002037B6FBF4FCA7EB0507103F07F01F0B57
:1003A000CBF120062CFA06F60CFA0BFB44BFB34641
:1003B0000026202FA4BF5E464FF0000B5BEA060C20
:1003C00008BF4FF0010B19EB0B0948EB0608ABFB1C
:1003D000027C06FB02CC0BFB03CCC01B71EB0C01B7
:1003E000C1E70B46024641464846BDE8F08B13B5CF
:1003F000084318BF4FF0FF300146AFF30080BDE85F
:100400001C4070470FB4044910B503AA029800F0CD
:1004100097FE10BC5DF814FB400100200FB41CB522
:10042000074B06AA7B4469460090059800F059FEE8
:100430000020694600F068FE1CBC5DF814FB00005B
:10044000E10C000070B50C460546012A05D028785D
:10045000800600D5EA69002302E0012305E05B1C69
:10046000934202D2E05C0028F9D1A869E618C01ACC
:10047000A861286A184428622846AFF3008004E087
:10048000D5E9012114F8010B9047B442F8D328466E
:10049000AFF3008070BD00002DE9F0410646002456
:1004A00010687529314616A510D0AFF300800028DA
:1004B00002DA404213A507E031688A0701D512A588
:1004C00002E0490704D511A5012401E0AFF3008043
:1004D00000210A2206F1240709E0B0FBF2FCB0FB80
:1004E000F2F302FB1C00303078541846491C0028F7
:1004F000F3D123462A463046BDE8F04100F085BBE3
:10050000000000002D0000002B0000002000000073
:100510002DE9F0474FF0000A89460446C0F820A0B4
:100520002046E1688847002876D0252806D0D4E9FF
:1005300001219047206A401C2062F1E7E1682046D3
:1005400000258847C4F81CA006460027C4F818A058
:100550002A2E09D0304608F0C2F838B304EB8708D9
:10056000303EC8F8186019E059F8041B204604EB27
:1005700087029161E1688847012F064618D1E0693A
:10058000002820DA25F020051DE0D8F8180000EB3F
:10059000800006EB40003038C8F818002046E168BB
:1005A0008847064608F09BF80028EED1012F0AD0B4
:1005B0002E2E08D12046E16888477F1C0646022F70
:1005C00045F02005C4DBA069002803DA404245F06D
:1005D0000105A061E80701D025F01005B6B1A6F12C
:1005E0004100192802D8203645F400654A463146B4
:1005F000204625604D46FFF73FFE58B1012806D042
:10060000ED1D25F0070000F1080989E704E005F178
:10061000040985E730468AE7206ABDE8F0870000D4
:100620000FB400B58DB010A9099000910B904FF058
:10063000FF300A9000200C90064878440690064847
:1006400078446A4607900F9909A800F09FFD0DB005
:100650005DF814FB6F0B0000870B00002DE9FF5FB6
:100660001D464FF0FF3B91464FF000085F46D5E92D
:100670000146A96901987F1C8847296A82468847F4
:100680000028F6D1BAF1FF3F0CD0002E24F4C0644C
:1006900019DD600614D5BAF12B0F09D0BAF12D0F70
:1006A0000ED103E0584604B0BDE8F09F44F48064E6
:1006B000A96901987F1C8847761E8246002E02DDBC
:1006C000BAF1300F03D0B9F1000F26D032E0A9699A
:1006D000761E01987F1C44F400748847002E8246E1
:1006E00005DDBAF1780F06D0BAF1580F03D0B9F191
:1006F000000F10D01EE0B9F1000F02D0B9F1100FB9
:1007000018D1A969761E01987F1C24F400748847CB
:100710008246102002E0082000E00A20814609E01D
:10072000A96908FB0908761E01987F1C44F400742F
:1007300088478246002E05DD4946504600F012FDEE
:100740000028EDDAE96901988847A00502D46FF026
:100750000100A8E7E00725D1600613D5600502D5A2
:10076000C8F1000000E0404629680A1D2A600968B7
:10077000220501D5087015E0220701D5088011E097
:1007800008600FE02868011D29600068210502D576
:1007900080F8008006E0210702D5A0F8008001E083
:1007A000C0F8008038467EE72DE9FF5F4FF0000873
:1007B0009946144646469169D2E901A7DDF838B05A
:1007C00001988847054659EA0B0005D009E0A16960
:1007D0000198761C88470546216A284688470028E4
:1007E000F5D1681C03D05FEACA7005D015E04FF060
:1007F000FF3004B0BDE8F09F2068011D2160D0F8F3
:1008000000800AE05FEACA7001D108F8015BA169C3
:10081000761C01987F1E88470546002F1ADD681C4C
:1008200018D0B9F1000F0DD0E81705EBD0604211D8
:1008300020F01F0059F822102A1A0120904001428E
:10084000E0D107E0BBF1000FDCD12846216A8847E0
:100850000028D7D0E16901988847BBF1000F07D184
:10086000002E05DD5FEACA7002D1002188F8001071
:10087000A068B84203DDBBF1000F03D017B16FF0E1
:100880000100B6E73046B4E710B5044603E007F0D0
:100890002DF9401C09D014F8010B05490028F6D1A8
:1008A000BDE810400A2007F021B94FF0FF3010BD1D
:1008B0004001002040EA010310B59B070FD1042A34
:1008C0000DD310C808C9121F9C42F8D020BA19BA1B
:1008D000884201D9012010BD4FF0FF3010BD1AB180
:1008E000D30703D0521C07E0002010BD10F8013BD5
:1008F00011F8014B1B1B07D110F8013B11F8014BFC
:100900001B1B01D1921EF1D1184610BD40EA010314
:10091000024630B59B0710D14FF0013400E008C209
:1009200008C91D1B9D4315EAC41FF8D013F0FF0131
:1009300002F8011B0DD01B0AF8E711F8013B002B50
:1009400002F8013B05D011F8013B002B02F8013BF6
:10095000F3D130BD10B5431C02E010F8011B71B19A
:100960008107FAD14FF0013202C88C1A8C4314EA85
:10097000C211F9D0C01A0A0603D0C01E10BDC01A99
:1009800010BD0A0401D0801E10BD0902FCD0401E1B
:1009900010BD4FF0000200B513469446964620392C
:1009A00022BFA0E80C50A0E80C50B1F12001BFF428
:1009B000F7AF090728BFA0E80C5048BF0CC05DF88E
:1009C00004EB890028BF40F8042B08BF704748BFDC
:1009D00020F8022B11F0804F18BF00F8012B704750
:1009E00030B44FF0013C50F8042B51F8043BCCFAE2
:1009F00052F4D51A20D1FCB950F8042B51F8043B1D
:100A0000CCFA52F4D51A17D1B4B950F8042B51F8D6
:100A1000043BCCFA52F4D51A0ED16CB950F8042B21
:100A200051F8043BCCFA52F4D51A05D1002CDAD097
:100A300030BC4FF00000704729BAB1FA81F111F0D3
:100A40001801D1F120008440F2D1CA40CB4012F00D
:100A5000FF0213F0FF0330BCD01A704710B50368D3
:100A60001C1404EB21449BB289B2194494FBF2F3A9
:100A700002FB134394FBF2F401EB034393FBF2F10B
:100A800002FB113193FBF2F301E05B1E11440029DC
:100A9000FBDB016003EB044010BD2DE9F047044689
:100AA0004FF0FF3A86B00068029060680390A0683B
:100AB0000490E068019020690090656905F180402C
:100AC000B0F1004F7DD83C22002102A8FFF7C6FFFD
:100AD0003C22014603A8FFF7C1FF1822014604A8E3
:100AE000FFF7BCFF411E40F2B55201A8FFF7B6FF69
:100AF0000C22064668460021FFF7B0FF00EB860097
:100B000028443E4D00267D440FE09A1A491CCDE949
:100B10000012022902D00C2907D104E0810704D079
:100B2000521C019201E0401C00960099019B6A5CF6
:100B30009A42EADD012906D11C2B04D1810702D09B
:100B40000221CDE90016A0F146018B2940D201997E
:100B5000009B00220F4602E0AE5C521C31449A42D8
:100B6000FADB012B02DD820700D0491E40F2B555A9
:100B700040F26D16C21700EB927292106A4300F0B9
:100B8000030505FB062285070A4400D1521E049D79
:100B900002EB4206DDF80C80A94605EBC605184EAF
:100BA000C5EB0515DDF808C008EB850535442E14A6
:100BB000ADB2C6EB0616C5EB0515B6000CEB850508
:100BC00000E005E006EB154666F31F45360C03D042
:100BD000504606B0BDE8F087C4E904307F1C07200A
:100BE000521CC4E9029792FBF0F3E4E806C800FB4C
:100BF000132084E803042846EBE700008E81000000
:100C0000A039CEFD7047704770472DE9F0470D467B
:100C100099469246044600F124080168880604D5E6
:100C2000E06921F01001216000E00120A84201DD0F
:100C3000471B00E00027A1697A1902EB0900081A96
:100C4000A0612078C00602D42046AFF300800026C1
:100C500008E0D4E901211AF806009047206A401CF8
:100C6000761C20624E45F4DB2078C0060AD520466B
:100C7000AFF3008006E0D4E9012130209047206ADC
:100C8000401C2062381EA7F10107F4DC07E0D4E91C
:100C9000012118F805009047206A401C2062281E98
:100CA000A5F10105F3DC2046AFF3008020780006B3
:100CB00002D50220BDE8F0870120FBE72DE9FF4FB8
:100CC0000C461E464FF0FF378BB0D2E90001DDF82D
:100CD00060800A908A46C1F30A5505B93D46002155
:100CE00008464FF00000BAF1000F00F4400005DAAA
:100CF00000EB80004FF4400101EA50004FEA9059A8
:100D0000B9F1010F00DDB9460A9850EA4A000ED049
:100D100044F61050A5F2FF3545432F14B8F1000FEB
:100D20001ED07542291E1EDDC9F100021CE0B8F17B
:100D3000010F4FF0000001D0302103E0F24305E045
:100D40002154401CB042FBDB3046002200212154DC
:100D50000B99C1F80880C1E900200FB0BDE8F08F01
:100D6000BD1B6D1CDEE74A4600DA694206A800F0AA
:100D700089FC06AB93E8070003AB83E80700504605
:100D80000A9907F0B6F88DE80700A0F500501F3863
:100D900000900398002D0ADD42F21F014A460844E4
:100DA000002303A90390684607F020FB09E0A0F5A3
:100DB00000504A461F38002303A90390684607F0F5
:100DC0002AFB8DE807000004000C03D04FF0FF3031
:100DD000410800E01046B8F1000F03D00022009255
:100DE00015461EE0751E05D400F004FA3032625537
:100DF0006D1EF9D5B3460122084302D000227F1CA4
:100E000004E02078302801D100227F1E002A0997B3
:100E100084D01DE0112D07DA00F0ECF93032625574
:100E20006D1C50EA0102F5D1084302D00098C8B108
:100E30000EE00021681E05E0235C625C63542254CE
:100E4000401E491C8142F7DBAB46A81B401E09909F
:100E5000002004F80B000B98099AC0F80880C0E93C
:100E6000002B7AE711264FF0000857E72DE9F04FE5
:100E700088460446D21D22F0070191B0D1E9000155
:100E8000CDE90A0107F0FEFB02460B98C00F01D026
:100E90002D2007E02068810701D52B2002E02021CA
:100EA00001EAC000032A099001D0072A05DB0346A6
:100EB0004146204600F0ECF90BE12078800601D590
:100EC000E06900E00620B8F1650F814606D0B8F170
:100ED000660F18D0B8F1670F70D131E00020B9F17A
:100EE000110F009001DB112301E009F101030AAAAF
:100EF00001A90CA8FFF7E2FEDDE90C70002609F15C
:100F00000105834647E001204B4600904FF0004723
:100F10000AAA01A90CA8FFF7D1FEDDE90DB00C99D2
:100F20005D46002610B909F101000D18B9EB050066
:100F300003D4C0F1FF3609F10105A5EB09002BE050
:100F4000B9F1010F01DA4FF001090020B9F1110FD9
:100F50000090484601DD112300E003460AAA01A9DA
:100F60000CA8FFF7ABFEDDE90C704D46002683466A
:100F7000207800070AD4AB4500DA5D4601A8012DB0
:100F800004DD411911F8011C302907D04F4502DA60
:100F900017F1040F04DA012082460FE06D1EEEE720
:100FA000002F02DCED1B3E4403E0781CA84200DD6C
:100FB0007D1CB81B00F1010A4FF0004720780007A4
:100FC00003D4AA4501DB4FF0FF3A0021B7F1004FEF
:100FD0000DF143088DF8431024D002202B23002F5D
:100FE00001DA7F422D230A21021EA0F1010000DC5C
:100FF0005FB197FBF1FC97FBF1F201FB1C7C1746FC
:101000000CF1300C08F801CDEEE7A8F101000370F7
:101010002188090501D5452100E06521A0F10108DD
:1010200000F8011C09980FA9A1EB0807FF1D00B1EA
:101030000120411901EBEA70A1693844081A401EE9
:10104000A0612078C00602D42046AFF30080099842
:1010500028B1D4E901219047206A401C2062207801
:10106000C00622D52046AFF300801EE0002E04DB30
:10107000B34502DD01A8805D00E03020D4E9012104
:101080009047206A401C2062761CAAF101005FEAAA
:10109000000A0AD100F0AAF8C0680168405CD4E9EF
:1010A00001219047206A401C2062281EA5F10105FD
:1010B000DCDC07E0D4E9012118F8010B9047206A35
:1010C000401C2062381EA7F10107F3DC2046AFF375
:1010D0000080032011B041E601694A1C02610878D2
:1010E000704700B58FB0CDE9013100210591054968
:1010F0007944CDE9031011466846FFF709FA0FB0AD
:1011000000BD0000E5FFFFFF0A6802F8010B0A605E
:10111000704710B5436913B1AFF3008001E0FFF7EA
:1011200091F9012010BD127800F124010A7000220B
:101130004A700122EDE711684FF0FF32E9E7000045
:10114000074B70B50D467B44FFF7CBFF044628469E
:1011500000F00AFB10B14FF0FF3070BD204670BDAB
:10116000A36900003A2800D2303820F02002412A3A
:1011700001D3A2F13700884201D34FF0FF3070470E
:10118000026811441378016018467047D160054920
:101190007944516104497944116200211161114679
:1011A00000F0B6B8EDFFFFFFE5000000426842B175
:1011B000016811F8013B23B1521EC0E90012184624
:1011C00070470121C160881E704742685AB1C368E8
:1011D000016843B983688B4205D0491E521CC0E99F
:1011E0000012002070474FF0FF30704700487047F2
:1011F0003000002030B5B0F10A0271F100034FEA6F
:10120000900E4EEA817EB0EB0E0061EB91014FEA49
:10121000101E4EEA017E10EB0E0041EB11114FEA59
:10122000102E4EEA016E10EB0E0041EB11214FEA39
:10123000104E4EEA014E10EB0E0041EB11414018EA
:1012400041F100014FEAD00040EA41704FEAD1017C
:101250004FEA810444EA907410EB800544EB0104EA
:101260006D1944EB0404521BA3414FF0000348BF27
:101270000A3200D530BD401C41F1000130BD10B52F
:10128000044600F09FFA0068005D00F0010010BD08
:101290002DE9F0411F46044603260168072A01F4A0
:1012A000006004DB08B116A505E016A503E008B14F
:1012B00015A500E015A521F010002060A069C01E52
:1012C000A0610FB1401EA0612046AFF300804FB176
:1012D000D4E9012138469047206A401C2062C01C96
:1012E000206206E0206AFAE7D4E9012115F8010B33
:1012F0009047761EF8D22046AFF30080BDE8F0811B
:101300004E414E006E616E00494E4600696E6600A9
:101310002DE9F34F4FF0000A0C4656468DB00120E0
:101320000C9001F10C000B9062690B980121904721
:10133000051E2DD0252D2CD0216A8847C0B16269A9
:101340000B9801219047216A88470028F7D16269EC
:10135000411E0B98904700E0761CA1690D988847C4
:10136000216A88470028F7D1E1690D988847DBE7B3
:10137000A1690D988847A842074601D1761CD3E79A
:10138000E1690D9888477F1C02D1BAF1000F6FD038
:101390006BE162690B9800273D46394690472A2841
:1013A00004D162690B98012190470125DFF8D082B2
:1013B00062690B9801219047A0F130010A290AD2F5
:1013C0004745E5DC07EB870100EB4107303FDFD401
:1013D00045F01005ECE7E90601D46FF000476C28F2
:1013E0000AD04C2814D0682815D06A280DD074284B
:1013F0001CD07A281AD01DE062690B980121904711
:101400006C2802D045F0040514E045F002050DE01B
:1014100045F020050AE062690B9801219047682891
:1014200002D045F0080505E045F4006562690B98B7
:1014300001219047C4E9015765283DD019DC58289F
:101440007AD00CDC452837D004DC252826D041286A
:101450009ED131E046282FD0472899D12CE05B2837
:1014600077D0612828D063287CD0642823D15AE023
:10147000F6E06F2848D008DC66281DD067281BD00E
:10148000692821D06E2816D127E0702845D073280E
:1014900068D0752847D078280DD14DE0A1690D9806
:1014A0008847252805463FF469AFE1690D988847CC
:1014B0006D1C3FF46AAFD8E00D9923466A466FF081
:1014C0000100AFF30080C5E045F0400023464FF037
:1014D00000026060A80736D43EE0E8077FF447AF1B
:1014E0002068011D21600068290501D506701BE7F1
:1014F000290701D5068017E7A90703D5F117C0E929
:10150000006111E706600FE745F0400023464FF009
:1015100008026060A80716D41EE040F60E0125EA16
:101520000100606016E045F0400023464FF00A02DB
:101530006060A80707D40FE045F040006060A8078E
:1015400008D5234610220D996FF00100AFF30080FB
:1015500080E007E0102223460D996FF00100FFF7AD
:101560007DF877E04FF0000963284F46C8464B46A8
:10157000CB4602D05B2806D038E0E80601D4012033
:10158000A060012732E06269D4F80CB00B98012109
:1015900090475E2807D14FF0010949466269D4F8A7
:1015A0000CB00B989047216939B900210A4603AB6A
:1015B00043F82120491C0829FADBD8B3216949B333
:1015C00008F1010862690B98012190475D28F4D168
:1015D000B9F1000F09D0002003A951F82020D2430F
:1015E00041F82020401C0828F7DB03AB20690028C5
:1015F00020794FEA40701ED05B462246CDF800802D
:10160000CDE901970D9900286FF0010020DAAFF3C2
:1016100000801FE0C11703AA00EBD1614B1121F03C
:101620001F0102EB8302411A136801208840034323
:101630001360C7E719E00D99224600286FF00100FA
:10164000009702DAAFF3008004E0FFF7ADF801E0A5
:10165000AFF3008000280ADA401C06D10C9820B1B4
:101660004FF0FF300FB0BDE8F08F5046FAE7E907C2
:1016700001D10AF1010A064400200C9054E6000052
:10168000CCCCCC0C2DE9F047814616468AB03548C3
:1016900078440DC88DE80D0032487844801C03ACB6
:1016A0000DC884E80D0041F69B300844372190FBBB
:1016B000F1F290FBF1F5A5F1800501FB12041B3C52
:1016C00002D56442012000E00020DFF898A08046A7
:1016D0000027FA44AAF1BE0A0EE0E0070AD032461B
:1016E000684607EB470101230AEB810106F093FEF0
:1016F0008DE8070064107F1C002CEED1194F7F4449
:10170000AE3F19E0E80715D007EB04100DF1180AF9
:1017100090E80E008AE80E00C068F04201D19819E6
:1017200008903246012306A903A806F074FE03AB15
:1017300083E807006D10641C002DE3D14FF0010316
:1017400032466946B8F1000F03A802D006F04EFEFB
:1017500001E006F060FEC9E90001C9F808200AB0FE
:10176000BDE8F0878C760000007B00F080007047B9
:1017700000487047100000207546FFF7F9FFAE469D
:1017800005006946534620F00700854618B020B58D
:10179000FEF7AEFDBDE820404FF000064FF0000719
:1017A0004FF000084FF0000BAC46ACE8C009ACE8C5
:1017B000C009ACE8C009ACE8C00921F007018D46BA
:1017C0007047000010B5FFF711FD001D10BD00BFF0
:1017D000496F000010B50446AFF300802046BDE815
:1017E0001040FEF771BD0000FEE7000070470000EA
:1017F000EFF3108072B600BFFEE70000014690F8DC
:101800002500022827D180B50868D1E910CE8A6C5E
:10181000036823F00E030360136823F480731360DE
:10182000026822F0010202600EF01F00012202FA9B
:1018300000F0CCF80400D1E913205060486D30B1BD
:10184000026822F480720260D1E916024260002030
:10185000BDE8804002E00420C8630120012281F835
:101860002520002281F824207047000090F82510E0
:10187000022930D180B50168D0E910CE826C0B68A6
:1018800023F00E030B600B6823F001030B6011685B
:1018900021F4807111600EF01F02012101FA02F2A1
:1018A000CCF80420D0E913325A60426D32B113688B
:1018B00023F480731360D0E91623536080F8251059
:1018C000826B002180F824100AB190470021BDE806
:1018D0008040084670470421C1630121002280F83E
:1018E000251080F82420084670470000B0B5044653
:1018F00000F0ECF8054640F20800C2F20000006873
:10190000611C18BF044400BF00F0E0F8401BA04277
:10191000FAD3B0BD0A68002A08BF70472DE9F04F1E
:1019200082B000F13847860546EA972741F2004623
:10193000C4F60006062340F20048B04208BF052363
:10194000C4F20108052F38BF3B4600244FF0030EB8
:1019500000270025009309E00A68013532FA05F3F3
:1019600007F1020704F1040400F0A080012303FA48
:1019700005FC12EA0C09EFD0D1F804A00AF003022A
:10198000A2F1010BBBF1010F11D8D0F808B0CE685D
:101990000EFA07F32BEA0303BE4033438360436828
:1019A000CAF3001623EA0C03AE4033434360032A14
:1019B0001ED0D0F80CC08B680EFA07F62CEA06068B
:1019C000BB403343022AC36012D16FF0030202EA24
:1019D0005502024404F01C060F23D2F820C003FA7B
:1019E00006FA0B692CEA0A0CB34043EA0C031362B3
:1019F00002684E680EFA07F39A4306F00303BB40F1
:101A00001A4316F4403F0260A6D041F26003C4F2CC
:101A100002031A684FF6084A42F001021A601A6877
:101A2000CFF6FF7A02F001020192019A25F003023B
:101A3000424452F80AC004F00C060F23B3402CEACB
:101A4000030C009B03FA06F646EA0C0342F80A3040
:101A5000D8F808C04B684CEA090640F20C4ADA0292
:101A600058BF2CEA0906C8F80860C4F2010ADAF87F
:101A700000C09A024CEA090658BF2CEA0906CAF8C7
:101A80000060D8F804C09A034CEA090658BF2CEA53
:101A90000906C8F80460D8F80020DB0342EA09060A
:101AA00058BF22EA0906C8F8006055E702B0BDE851
:101AB000F04F70470069084018BF012070470000D0
:101AC0001823002A08BF2823C150704740F28440E1
:101AD000C2F200000068704740F2080040F2844102
:101AE000C2F20000C2F2000100680A6810440860F7
:101AF0007047000080B5032000F08CF80F2000F044
:101B000009F800281CBF012080BD00F02DF800203E
:101B100080BD0000B0B540F20801C2F200010968C2
:101B200001B3044640F20400C2F200004FF47A729E
:101B30000068B2FBF1F1B0FBF1F000F08DFE0F2C6C
:101B40004FF001050CD858B94FF0FF302146002264
:101B5000002500F033F840F20C00C2F200000460EF
:101B60002846B0BD0120B0BD82B041F25800C4F299
:101B70000200816841F001018160816801F001018A
:101B800001910199016841F080510160006800F005
:101B900080500090009802B000F0D0B8002848BFF4
:101BA000704700F01F01012202FA01F14EF200120B
:101BB0004009CEF2000242F82010704710B54EF6F0
:101BC0000C5CCEF2000CDCF80030C3F3022E8EF079
:101BD0000704042C28BF0424BEF103034FF0FF3E8A
:101BE0000EFA04F438BF0023A14399400EFA03F320
:101BF0009A43114300F1604200F00F03090102F51E
:101C00006442043B6344002848BF03F10C02117096
:101C100010BD00004EF60C51CEF200010A684FF6DE
:101C2000FF031A4060F30A2242F0806040F0FD702A
:101C300008607047B0F5007F3BD0002872D147F2B2
:101C4000000CC4F2000CDCF80010DCF8802001F479
:101C5000C06122F48072B1F5806FCCF8802026D16B
:101C6000DCF80010012262F34A21CCF8001040F2A7
:101C70000401C2F200010968322359434DF683631F
:101C8000C4F21B33A1FB031302EB9341002200BFFC
:101C9000DCF81400013942F10003400501D5002BA6
:101CA000F6D1DCF81400400544BF03207047002043
:101CB000704747F2000CC4F2000CDCF80010DCF8AE
:101CC000802001F4C06142F48072B1F5806FCCF8DD
:101CD0008020ECD1DCF80010012262F34A21CCF81C
:101CE000001040F20401C2F2000109683223594396
:101CF0004DF68363C4F21B33A1FB031302EB934144
:101D0000002200BFDCF81400013942F10003400555
:101D100001D5002BF6D1DCF81400400544BF0320A8
:101D20007047C4E747F20000C4F2000001680222D5
:101D300062F34A21016000207047000047F208006A
:101D4000C4F20000016841F4804101607047000066
:101D50002DE9F04381B08146807841F28807000781
:101D6000C4F2020701D4002565E057F8300C5FEAA1
:101D7000C0080BD457F8300C40F0805047F8300CB6
:101D800057F8300C00F080500090009847F20004A3
:101D9000C4F20004206840F480702060FFF796FED3
:101DA000054600BF2068C60508D4FFF78FFE401B1C
:101DB0000328F7D30325002E03D433E00025002E9B
:101DC00030D5B86810F4407012D0D9F8401088426D
:101DD0000BD0B868B96820F4407041F48031B96024
:101DE000B96821F48031B960B860C00703D110E050
:101DF0000020C0070DD0FFF769FE064641F2893486
:101E0000B868800705D4FFF761FE801BA042F7D3B6
:101E100003253DB9B868D9F8401020F44070084354
:101E20000025B860B8F1000F05D457F8300C20F049
:101E3000805047F8300CD9F80000C10712D1810753
:101E400019D4410720D4010727D481062ED4410696
:101E500035D401063CD4C10543D481054AD441059B
:101E600051D460E03968D9F8042021F0030111430E
:101E700039608107E5D53968D9F8082021F00C01CF
:101E8000114339604107DED53968D9F80C2021F0BB
:101E90003001114339600107D7D53968D9F81020CE
:101EA00021F0C001114339608106D0D53968D9F8D5
:101EB000142021F44061114339604106C9D53968C5
:101EC000D9F8182021F44051114339600106C2D5D8
:101ED0003968D9F81C2021F4404111433960C1050B
:101EE000BBD53968D9F8202021F44031114339603D
:101EF0008105B4D53968D9F8242021F44021114353
:101F0000396041050FD53968D9F8282021F44011EE
:101F10001143B2F5801F396005D157F87C1C41F49C
:101F2000801147F87C1C01050FD53968D9F82C20A1
:101F300021F440011143B2F5800F396005D157F803
:101F40007C1C41F4801147F87C1CC1040FD5396812
:101F5000D9F8302021F040711143B2F1807F39600F
:101F600005D157F87C1C41F4801147F87C1C810492
:101F70000FD53968D9F8342021F040611143B2F10E
:101F8000006F396005D157F87C1C41F4801147F887
:101F90007C1C41040FD53968D9F8382021F0406104
:101FA0001143B2F1006F396005D157F87C1C41F440
:101FB000801147F87C1C00040FD53868D9F83C1014
:101FC00020F040500843B1F1805F386005D157F8E8
:101FD0007C0C40F4803047F87C0C284601B0BDE80A
:101FE000F08300002DE9F047002800F0008142F264
:101FF000000AC4F2020A0446DAF800000D4600F0B6
:102000000F0088420DD2DAF8000020F00F002843BC
:10201000CAF80000DAF8000000F00F00A84240F013
:10202000E680216841F20808C807C4F202080CD112
:102030004FF00009206881074BD4B9F1800F61D1BE
:10204000D8F8000020F0F0005AE06068022800F0A4
:10205000CA80032840F0CE8058F8082C920140F145
:10206000C680D8F80420D8F8043042F20046C3F302
:10207000031302F00302D8F804700133C0F2F4062F
:10208000032A04BF43F20066C0F26E16B6FBF3F2F9
:10209000D8F80430C7F306277A43C3F34163022715
:1020A00007EB4303B2FBF3F24BF20043C0F2C4432D
:1020B0009A4240F2E880D8F8002012F0F00F00F0C9
:1020C000D880890740F1DF80A168002940F0DB80DB
:1020D000CFE0410705D5D8F8001041F4E061C8F819
:1020E0000010000706D5D8F80000072161F30D2085
:1020F000C8F80000D8F80000A16820F0F0000843FC
:10210000C8F80000DAF8000000F00F00A84219D962
:10211000DAF8000020F00F002843CAF80000FFF7AB
:10212000D5FC064641F28837DAF8000000F00F00CF
:10213000A84207D0FFF7CAFC801BB842F4D903209D
:10214000BDE8F0872068410707D5D8F80010E2689D
:1021500021F4E0611143C8F80010000708D5D8F851
:102160000000216920F4605040EAC100C8F8000076
:10217000D8F8000042F20041C0F2F40100F00C0077
:102180000428084600F0A080D8F8000000F00C00F9
:10219000082843F20060C0F26E1000F09580D8F875
:1021A000002002F00C020C2A40F08D80D8F80420A8
:1021B000D8F8043002F00302C3F30313D8F8047014
:1021C0000133032A08BF0146B1FBF3F0D8F804102D
:1021D000C7F30627C1F341610222784302EB4101B4
:1021E000B0FBF1F070E058F8081C890306D4012018
:1021F000BDE8F08758F8081C4905F8D5D8F8001054
:1022000001F00C0104293ED0D8F8001001F00C01B7
:10221000082938D0D8F8001001F00C010C2932D16F
:10222000D8F80410D8F8042042F20047C2F3031291
:1022300001F00301D8F804300132C0F2F407032999
:1022400004BF43F20067C0F26E17B7FBF2F1D8F893
:102250000420C3F306235943C2F34162022303EB74
:102260004202B1FBF2F14BF20042C0F2C442914291
:1022700009D9D8F80010082262F307114FF080093D
:10228000C8F8001001E04FF00009D8F8001021F064
:1022900003010843C8F80000FFF718FC064641F2A6
:1022A000883700BFD8F80000616800F00C00B0EB80
:1022B000810F3FF4BFAEFFF709FC801BB842F1D994
:1022C0000320BDE8F0870020D8F8001048F63E5201
:1022D000C1F30311C0F60002515C40F2040201F0A8
:1022E0001F0120FA01F140F20C00C2F20000006868
:1022F000C2F200021160BDE8F047FFF70BBC00001E
:1023000040F2040041F20801C2F20000C4F20201EE
:102310000068096848F64E52C1F30221C0F6000277
:10232000515C01F01F01C8407047000040F20400FA
:1023300041F20801C2F20000C4F20201006809681B
:1023400048F64E52C1F3C221C0F60002515C01F0C2
:102350001F01C8407047000041F20C01C4F20201A5
:1023600051F8040C42F20042C0F2F40200F00C00FA
:102370000428104608BF704751F8040C00F00C0008
:10238000082843F20060C0F26E1025D051F8043CDA
:1023900003F00C030C2B1CBF0020704780B5D1F854
:1023A00000C00B680CF0030CC3F3031E0B680EF1A6
:1023B000010EBCF1030F08BF02460968B2FBFEF034
:1023C000C3F30623C1F341610222584302EB4101EA
:1023D000B0FBF1F0BDE8804070470000002804BF6A
:1023E000012070472DE9F04182B00446007841F2A7
:1023F0000006C007C4F202061DD1207880073BD436
:10240000207800075ED4207840077CD420788006AE
:1024100000F1C980E569002D00F01A82B06800F073
:102420000C000C2840F02281012D40F09481012005
:1024300002B0BDE8F081B06800F00C01F068082936
:1024400058D0032281F00C0122EA00000844B0FABF
:1024500080F040094ED16568B5F5A02F00F0D1801D
:10246000B5F5803F00F0D180306820F480303060D6
:10247000306820F48020CBE0B068F16800F00C00F8
:10248000042864D001F0030180F00C0081F0020107
:102490000844B0FA80F0400959D1E1683068002959
:1024A00000F0D18040F480703060FFF70FFB0546EC
:1024B0003068400500F1FC80FFF708FB401B022854
:1024C000F6D92EE16169D6F89400002900F08780E2
:1024D00040F00100C6F89400FFF7F8FA054600BF87
:1024E000D6F8940080078ED4FFF7F0FA401B02283C
:1024F000F6D916E1306880037FF57FAF6068002869
:102500007FF47BAF39E0B06D5FEAC00808D4B06DEE
:1025100040F08050B065B06D00F08050019001989F
:1025200047F20007C4F200073868C00529D43868AC
:1025300040F480703860FFF7C9FA05463868C00576
:102540001FD4FFF7C3FA401B0228F7D9E9E030682F
:10255000400501D5E06880B17068216920F0FE4037
:1025600040EA0160706040F20C00C2F200000068B6
:10257000FFF7D0FA00283FF443AF012002B0BDE8D6
:10258000F081A568052D00F0B080012D00F0B3802A
:10259000D6F8900020F00100C6F89000D6F8900020
:1025A00020F00400ABE0A169D6F89800002900F003
:1025B000878040F00100C6F89800FFF787FA0546CB
:1025C000D6F8980080073FF525AFFFF77FFA401B4C
:1025D00002284FF00300F3D902B0BDE8F08120F0EB
:1025E0000100C6F89400FFF771FA0546D6F894008A
:1025F00080077FF508AFFFF769FA401B0228F5D97D
:102600008FE0306840F480203060306840F48030E3
:102610003060FFF75BFA002D054610D0306880036C
:102620003FF5EBAEFFF752FA401B6428F6D978E08D
:10263000FFF74CFA401B64284FF00300CCD83068F9
:102640008003F5D4D9E620F480703060FFF73EFABD
:10265000054600BF306840057FF5D2AEFFF736FA79
:10266000401B02284FF00300F4D9B5E7306820F092
:1026700080703060FFF72AFA022D05460CD100BFAA
:102680003068800140F1A080FFF720FA401B02284B
:102690004FF00300F4D99FE73068800140F1D1800A
:1026A000FFF714FA401B02284FF00300F4D993E718
:1026B0007068216920F0FE4040EA016070609FE68A
:1026C00020F00100C6F89800FFF700FA054600BFA9
:1026D000D6F8980080077FF59DAEFFF7F7F9401B0D
:1026E00002284FF00300F3D976E7D6F8900040F0C7
:1026F0000400C6F89000D6F8900040F00100C6F83B
:102700009000FFF7E3F9002D054641F2883715D018
:10271000D6F89000800715D4FFF7D8F9401BB842CF
:10272000F6D9032002B0BDE8F08100BFFFF7CEF973
:10273000401BB8424FF003003FF64EAFD6F8900072
:102740008007F3D4B8F1000F3FF560AEB06D20F014
:102750008050B0655AE6F068216A00F003028A42B0
:102760007FF40BAF626A6FF00F0300F0F00103EB30
:10277000021291427FF401AFA16A00F4FE42B2EB73
:10278000012F7FF4FAAEE16A00F07842B2EBC16F3C
:102790007FF4F3AE226B0023CFF6E07303EA02521C
:1027A00000F4C001A2F5001291427FF4E6AE616B25
:1027B0004FF07E4202EA016100F0C06001F17E410B
:1027C00088427FF4DAAE43E0F06848F20C01C0F2D0
:1027D0009F1104F1200700EA010C8ECF6FF00F006B
:1027E000D4E90C5400EB02100022CFF6E07241EA6B
:1027F0000C0102EA05520843A2F500124FF07E4593
:1028000040EA032005EA0465104305F17E4540EAED
:10281000C7602843F060306840F080703060F06836
:1028200040F08070F060FFF751F904463068800195
:102830000ED4FFF74BF9001B02284FF00300F5D927
:10284000CAE6F0684FF6FC71CFF6EE610840F06022
:10285000002002B0BDE8F081411E0020B0EB116FF6
:102860001CBF012070474EF21002CEF200025160F0
:102870004EF62351CEF20001F0230B700721906039
:1028800011607047704700007047000070470000FB
:1028900090F83C20012A04BF02207047B0B5012205
:1028A00080F83C20D1E90232D1E900CE22F47C52FA
:1028B00023F4705343EA020448F2FF73CEF6F07338
:1028C0000EEA0302224303F5006404EA0C0442EA20
:1028D000040C0C6903F5C05222404C6942EA0C0218
:1028E000224303F5605422400C6B03F5F043234070
:1028F0001A438B6940F2000CCC69CEF6FF7C0CEADF
:1029000003431443D0F800C043F20042C4F2010272
:10291000944543EA040305D042F60042C4F20102A2
:10292000944516D14FF6FF72CDF60F421A40D1E909
:10293000083ED1E90A410025CDF6F04505EA0454E8
:10294000224323F008531A432EF000531A4342EA5D
:1029500001030021CCF8443080F83C10BDE8B040C1
:10296000084670477047000070470000704700003D
:1029700090F83C20012A4FF002024DD070B501239F
:1029800080F83C3080F83D20026843F2004C5468E7
:102990009368C4F2010C42F6004E6245C4F2010E87
:1029A00001D0724503D14D6824F470042C434FF6D6
:1029B0008F75CFF6FF550E682C4042F6FF35C4F2F6
:1029C00001053443AA4254600FDCB2F1804F16D0A7
:1029D00040F20046C4F20006B24210D040F60006B3
:1029E000C4F20006B2420AD00EE0724507D044F2AB
:1029F0000006C4F20106B24201D0624504D18968E2
:102A000023F08003194391600121002280F83D10DA
:102A100080F83C20BDE870401046704770470000C9
:102A2000002804BF0120704710B5044690F83D000F
:102A300028B9002084F83C00204600F023F802204A
:102A400084F83D002068211D04F01CF8012084F862
:102A5000480084F83E0084F83F0084F8400084F881
:102A6000410084F8420084F8430084F8440084F86C
:102A7000450084F8460084F8470084F83D000020B3
:102A800010BD000010B582B0006844F60001C4F229
:102A90000101884217D041F20001C4F200018842CE
:102AA0002AD141F25800C4F202000168002241F02C
:102AB000100101600068002100F0100001900198F1
:102AC0003620362410E041F25800C4F2020081683A
:102AD000002241F4802181608068012100F480207F
:102AE000009000981A201A24FFF768F8204602B0D8
:102AF000BDE81040FFF752B802B010BD90F83D108D
:102B000001291DD1022180F83D10016842F6FF32F3
:102B1000C868C4F20102914240F00100C86011DCB3
:102B2000B1F1804F20D040F20040C4F20000814259
:102B30001AD040F60000C4F20000814214D020E018
:102B40000120704742F60040C4F2010081420BD0E0
:102B500044F20000C4F20100814205D043F200407B
:102B6000C4F2010081420CD188680722C0F2010240
:102B70000240062A4FF00000E3D0B2F5803F08BFC4
:102B80007047086840F001000860002070470000AE
:102B900070470000F0B581B004460068C56806695A
:102BA000B10716D515F0020113D06FF002010161D3
:102BB000012121778069800703D02046FFF7E8FFD5
:102BC00005E0204600F0CAF8204600F0E5FA0020B3
:102BD0002077700718D515F0040015D020686FF025
:102BE0000401016102212177806910F4407F03D044
:102BF0002046FFF7CDFF05E0204600F0AFF8204665
:102C000000F0CAFA00202077300717D515F0080029
:102C100014D020686FF00801016104212177C06998
:102C2000800703D02046FFF7B3FF05E0204600F001
:102C300095F8204600F0B0FA00202077F00618D56D
:102C400015F0100015D020686FF010010161082107
:102C50002177C06910F4407F03D02046FFF798FF2A
:102C600005E0204600F07AF8204600F095FA0020B2
:102C70002077F00718BF15F0010006D020686FF02C
:102C800001010161204600F055FB16F4025F05F0DA
:102C9000800718BF002F02D1F00509D410E020688A
:102CA0006FF4025101612046FFF7EEFDF00507D5F4
:102CB00037B120686FF4807101612046FFF7E2FDB3
:102CC000700609D515F0400006D020686FF040016D
:102CD0000161204600F0DAFBB00609D515F02000AE
:102CE00006D020686FF0200101612046FFF7CEFD7D
:102CF000F00209D515F4801006D020686FF4801119
:102D000001612046FFF730FEB00209D515F400102E
:102D100006D020686FF4001101612046FFF722FE03
:102D2000700209D515F4800006D020686FF4800188
:102D300001612046FFF71AFE30020CD515F40000A1
:102D400009D021686FF4000220460A6101B0BDE895
:102D5000F040FFF763BE01B0F0BD00007047000017
:102D600090F83C30012B04BF022070474FEAB202BA
:102D70000123052A80F83C3000F2D4812DE9F0418E
:102D8000DFE812F006005300A700FB004F018C01A2
:102D900003681D6A1A6AA3F1804622F001021A62D2
:102DA0001A46A6F596369F05D3F804C052F818EFD8
:102DB00047EA96268F68D1F8008025F00205072E95
:102DC00045EA07050AD80127B74017F0E50F1FBFEE
:102DD000CF6825F00C0527F004073D43072E0CD8DB
:102DE000012707FA06F616F0E50F1FBFD1E90567C0
:102DF0002CF44074264346EA070C4FF68C74CFF649
:102E0000FE740EEA040747EA0807C3F804C09F618E
:102E10004F6809695F631D629F6947F008079F61FA
:102E20009F6927F004079F6176E1036843F200463B
:102E30001D6A1A6AC4F2010622F010021A621A46CA
:102E4000D3F804C052F8188FB3428E68D1F800E06E
:102E500025F0200545EA061505D042F60046C4F2E5
:102E60000106B34207D1CE686FF0400725F0C005D8
:102E700007EA06163543A3F18046A6F596369F0568
:102E800047EA9626072E0CD8012707FA06F616F011
:102E9000E50F1FBFD1E905672CF44064374344EACE
:102EA000870C48F6FF44CFF6FF6404EA080444EABE
:102EB0000E27C3F804C09F614F6809699F631D62B4
:102EC0009F6947F400679F619F6927F480679F614E
:102ED00021E1036843F200461D6A1A6AC4F2010642
:102EE00022F480721A621A46D3F804C052F81C8F7A
:102EF000B3428E68D1F800E025F4007545EA062556
:102F000005D042F60046C4F20106B34207D1CE68AE
:102F100040F2FF47360225F44065BE433543A3F136
:102F20008046A6F596369F0547EA9626072E0CD8CA
:102F3000012707FA06F616F0E50F1FBFD1E905676E
:102F40002CF44054374344EA071C4FF68C74CFF6F8
:102F5000FE7404EA080444EA0E07C3F804C0DF6103
:102F60004F680969DF631D62DF6947F00807DF61A9
:102F7000DF6927F00407DF61CEE0036843F2004613
:102F80001D6A1A6AC4F2010622F480521A621A46B5
:102F9000D3F804C052F81C8FB3428E68D1F800E019
:102FA00025F4005545EA063505D042F60046C4F240
:102FB0000106B34207D1CE6844F6FF77360325F405
:102FC0004045BE433543A3F18046A6F596369F059E
:102FD00047EA9626072E0CD8012707FA06F616F0C0
:102FE000E50F1FBFD1E905672CF44044374344EA9D
:102FF000871C48F6FF44CFF6FF6404EA080444EA5D
:103000000E27C3F804C0DF614F6809691F641D62A1
:10301000DF6947F40067DF61DF6927F48067DF61FC
:1030200079E00368D3F820C01A6AA3F1804722F43C
:1030300080321A621A46A7F596379C055D6852F8E9
:10304000508FD1F800E08E6844EA9727072F09D8FF
:103050000124BC4014F0E50F1EBF4C6925F48035F7
:1030600045EA04252CF4003747EA06474FF68C76EC
:10307000CFF6FE76033606EA080646EA0E065D60DF
:103080001E654E6809699E641F621F6D47F0080740
:103090001F651F6D27F004071F653DE00368D3F827
:1030A00020C01A6AA3F1804722F480121A621A46DD
:1030B000A7F596379C055D6852F8508FD1F800E06F
:1030C0008E6844EA9727072F09D80124BC4014F0E2
:1030D000E50F1EBF4C6925F4802545EA84252CF4B4
:1030E000001747EA065748F6FF46CFF6FF6606F593
:1030F000407606EA080646EA0E265D601E654E68C2
:103100000969DE641F621F6D47F400671F651F6D4C
:1031100027F480671F6509021368194300231160B3
:10312000BDE8F041002180F83C10184670470000CF
:10313000002804BF0120704710B5044690F83D00F8
:1031400028B9002084F83C00204600F023F8022033
:1031500084F83D002068211D03F094FC012084F8D0
:10316000480084F83E0084F83F0084F8400084F86A
:10317000410084F8420084F8430084F8440084F855
:10318000450084F8460084F8470084F83D0000209C
:1031900010BD0000704700007047000080B58646F3
:1031A00061B1081F8B0743EA9000032809D8DFE8C4
:1031B00000F0020B0E110EF13F000DE00EF13E008B
:1031C0000AE00EF1430007E00EF1400004E00EF1CA
:1031D000410001E00EF14200007801281CBF0120EF
:1031E00080BD69B1081F8B0743EA900003280BD804
:1031F000DFE800F0020E121602208EF83F0012E007
:1032000002208EF83E000EE002208EF843000AE015
:1032100002208EF8400006E002208EF8410002E015
:1032200002208EF842004FEAB103032B0FD849F673
:10323000407CDEF80000C0F6000C5CF823C0C268D9
:1032400042EA0C02C2600020032B03D980BD01209A
:10325000032BFBD8DEF8002001F01F014FF0010E18
:10326000136A0EFA01F18B431362136A42F6FF3CB4
:1032700019431162A2F18041A1F59631930543EA09
:1032800091210629C4F2010C3CD80EFA01F111F08B
:10329000650F37D0516C624541F4004151640FDC39
:1032A000B2F1804F1ED040F20041C4F200018A42C8
:1032B00018D040F60001C4F200018A4212D01CE08E
:1032C00042F60041C4F201018A420BD044F20001EF
:1032D000C4F201018A4205D043F20041C4F2010167
:1032E0008A420AD191680723C0F2010319400629D6
:1032F000ACD0B1F5803F08BF80BD116841F001013D
:10330000116080BD6245CBDD43F6FF71C4F201015F
:103310008A4202DC42F60041DAE744F20001C4F2DC
:1033200001018A42DED044F60001C4F201018A4262
:10333000B0D0E2E7B0B5006841F20001C4F200018C
:10334000884200D0B0BD40F25040C2F20000006898
:1033500001282AD0002818BFB0BD3CA1302000F0C1
:1033600005FD40F25445C2F2000540F26444AA68EB
:10337000C2F2000439A12046FDF750F86020214632
:1033800000F0F4FCEA6839A12046FDF747F89020E8
:10339000214600F0EBFCD5E902010844C0F1080227
:1033A00036A12046FDF73AF826E016A1302000F0BD
:1033B000DDFC40F25445C2F20005286805F0ECFB44
:1033C00040F26444C2F2000402460B4611A12046BA
:1033D000FDF724F86020214600F0C8FC686805F07D
:1033E000DBFB02460B4610A12046FDF717F89020A4
:1033F000214600F0BBFC11A4C0202146BDE8B0402E
:1034000000F0B4BC202020202020202050617261D8
:1034100020200000202020434E42523A252E3266C2
:103420002020202000000000202020564E42523A4A
:10343000252E3266202020200000000020202020A1
:1034400020202020202020202020000020202020BC
:10345000202020204461746120200000202020438F
:103460004E42523A25642020202000002020205681
:103470004E42523A2564202020200000202020497E
:10348000444C453A2564202020200000704700006D
:1034900090F88410012904BF022070472421C0F84D
:1034A000881002681168136823F00103136021F08B
:1034B00000530021416613602022C0F8882080F864
:1034C00084100846704700007047000070470000F5
:1034D00090F88420012A04BF02207047B0B5012370
:1034E000242280F88430C0F888200268D0F864E094
:1034F000D2F800C01468BEF1000F24F0010414607B
:10350000946824F0606441EA040191601BD09168E2
:10351000936849F6707E5B0FC0F6000E49F6787529
:103520001EF80340C0F60005EB5CE400B4FBF3F3C7
:10353000C1F34261A0F86A301EF80130695CDB001B
:10354000B3FBF1F301E0A0F86A302021A0F8683065
:10355000C2F800C0C0F88810002180F88410BDE8CF
:10356000B04008467047000090F88420012A04BF4C
:1035700002207047B0B50123242280F88430C0F8BF
:1035800088200268D0F864E0D2F800C01468BEF168
:10359000000F24F001041460946824F0604441EAB0
:1035A000040191601BD09168936849F6707E5B0FAF
:1035B000C0F6000E49F678751EF80340C0F6000507
:1035C000EB5CE400B4FBF3F3C1F34261A0F86A30B2
:1035D0001EF80130695CDB00B3FBF1F301E0A0F8F9
:1035E0006A302021A0F86830C2F800C0C0F8881006
:1035F000002180F88410BDE8B04008467047000004
:10360000704700007047000070470000D0F8881035
:10361000D0F88C000843704770B5036840F62F025D
:10362000D969044618689E680A40202A05D100F02E
:10363000200206F08055521939D140F60F020A4097
:103640000CD00122C1F2000206EA020C40F2201264
:10365000C0F20042024012EB0C022FD1E26ECD0606
:1036600016D5012A14D110F0100211D010201862C2
:103670009868400600F1D980B4F85C00B4F85E1098
:10368000B4F85E20002A18BF884240F0508170BD17
:10369000CA0240F11C8116F4800200F018814FF438
:1036A000801120461962BDE87040FFF7ABBF616F23
:1036B0000029ECD02046BDE870400847CA0718BF73
:1036C00010F4807207D001221A62D4F8902042F0E0
:1036D0000102C4F890208A0706F0010E0AD5BEF157
:1036E000000F07D002221A62D4F8902042F00402A0
:1036F000C4F890204A070AD5BEF1000F07D0042273
:103700001A62D4F8902042F00202C4F890200A070E
:103710000CD500F0200252EA0C0207D008221A62EF
:10372000D4F8902042F00802C4F890200A050BD586
:1037300010F0806208D04FF400621A62D4F8902032
:1037400042F02002C4F89020D4F89020002A9ED0A5
:10375000890609D500F0200006F08051401803D0FA
:10376000616F09B1204688472068D4F890108068BE
:1037700001F0280100F04000401807D12046FFF773
:1037800043FF0020C4F8900070BD00BF206850E8DF
:10379000000F216820F4907041E80002002AF5D162
:1037A0004FF6FE70CEF6FF70216851E8021F2268C6
:1037B000014042E80213002BF6D1E06E012809D146
:1037C000206850E8000F216820F0100041E8000256
:1037D000002AF5D12020C4F88C000020E066216882
:1037E00060678868400640F1938000BF206850E819
:1037F000020F216820F0400041E80202002AF5D1C2
:10380000D4F88000002800F0838046F63D51C0F6D1
:1038100000018163FEF72AF800283FF438AFD4F89E
:103820008000816BBDE870400847D4F880000068D4
:1038300041688AB2002A3FF42AAFB4F85C309A4259
:10384000BFF425AFA4F85E100068800632D400BF34
:10385000206850E8000F216820F4807041E80002E1
:10386000002AF5D1206850E8020F216820F00100FD
:1038700041E80202002AF5D1206850E8020F2168D1
:1038800020F0400041E80202002AF5D12020C4F8CF
:103890008C000020E06600BF206850E8000F21681F
:1038A00020F0100041E80002002AF5D1D4F8800091
:1038B000FDF7A4FF02202067B4F85C00B4F85E10A6
:1038C000401A81B22046BDE87040FFF7FDBD0A06F0
:1038D00005D500F0800206F40003D21858D14A063C
:1038E0001BD510F0400218D0206850E8000F216866
:1038F00020F0400041E80002002AF5D120200021FC
:10390000C4F888002046A167BDE8704000F0C0B947
:103910002046BDE87040FFF777BE0A023DD510F0A3
:1039200080423AD02046BDE87040FFF769BE401A99
:10393000216851E8001F226821F4907142E80013C9
:10394000002BF5D14FF6FE71CEF6FF71226852E8DA
:10395000022F23680A4043E80226002EF6D12021D8
:10396000C4F88C100021E166616700BF216851E84E
:10397000001F226821F0100142E80013002BF5D14E
:10398000022281B220462267BDE87040FFF79CBD4D
:10399000A16F00297FF48EAE79E6C9017FF577AE7D
:1039A000B0F1FF3FC8BF70BD2046BDE87040FFF7D3
:1039B0008DBD000010B5D0B10446D0F8880028B9FC
:1039C000002084F88400204600F026F82420C4F863
:1039D00088002068A16A026822F00102026011B129
:1039E000204603F0D9F8204603F052FC08B101202C
:1039F00010BD2168486820F490404860886820F035
:103A00002A008860086840F0010220460A60BDE88C
:103A1000104003F033B90000B0B598B0044600255B
:103A200002A844211795CDE91555CDE91355FCF7AA
:103A3000B0FF206843F60001C4F20101884201D0C2
:103A400018B0B0BD0120CDE9020502A8FEF780F94B
:103A5000002818BFFDF7CCFE41F24C00C4F2020072
:103A6000416941F480414161416901F48041019122
:103A70000199016841F001010160006813A900F09B
:103A80000100019001984FF4C0601390022014903F
:103A90000020CDE91500072017904FF09040FDF76A
:103AA00039FF252000210022FEF788F82520FEF7A7
:103AB00075F818B0B0BD0000D0F88C30202B1CBFBA
:103AC0000220704700294FF0010318BF002A01D1DE
:103AD0001846704780B50023C366D0F800C048F28E
:103AE0000003C4F200039C4510D0DCF804301B0234
:103AF0000CD500BF036853E800CFD0F800E04CF0CD
:103B000080634EE8003CBCF1000FF3D103F016FDDA
:103B10000023BDE88040184670470000006843F667
:103B20000001C4F20101884200D0704740F23E1CFF
:103B3000C2F2000CBCF8002011B2002948BF704747
:103B400040F23C13C2F200031B78500406D40D2B44
:103B500010D141F48042ACF80020704748F20000D8
:103B60000022CFF6FF700A2B08BF41EA0002ACF832
:103B70000020704740F274006FF39F32C2F20000E1
:103B800083544A1C90B2C72888BF0022ACF800209A
:103B9000704700002DE9F04381B00446D0F888005A
:103BA00020281FD1884600294FF001006CD016460E
:103BB000002A69D00020C4F8900021201D46C4F8D6
:103BC0008800FDF783FFA4F85460A4F85660A1684C
:103BD0000646B1F5805F01D1206938B1C1464FF08A
:103BE000000805E0022001B0BDE8F0834FF00009B5
:103BF000B4F8560058B36F1C0EE0B9F1000F1DD099
:103C000019F8010B21688862B4F856000138A4F84D
:103C10005600B4F85600D0B12068C0690006ECD454
:103C2000002FF9D0FDF752FF01464FF0030045B3D6
:103C3000891BA94225D820680068EDE738F8020BF7
:103C400021686FF35F2088624FF00009DCE720688D
:103C5000C069400614D46F1C04E000BF2068C0692E
:103C600040060DD4002FF9D0FDF730FF01464FF08C
:103C7000030035B1891BA94203D820680068EDE72D
:103C800000202021C4F8881001B0BDE8F0830000B6
:103C900070470000FEE70000B0B582B0044640F275
:103CA000184500200021C4F6000500F069FAD5F897
:103CB000FC03ADF80400286940F40070286128690D
:103CC00040F480702861286840F02000286022209D
:103CD000C5F8FC03286940F02000286100BF00BF40
:103CE00000BF286840F020002860286840F48070F9
:103CF000286000BF00BF00BF286840F40070286043
:103D0000BDF80400C5F8FC034FF49630D5F8FC1359
:103D10000138ADF80610296941F40071296129685C
:103D200041F480712960296841F020012960C5F8BB
:103D3000FC43296941F02001296100BF00BF00BF99
:103D4000296841F020012960296841F480712960C7
:103D500000BF00BF00BF296841F400712960BDF8B1
:103D60000610C5F8FC13D1D102B0B0BD0A78002A04
:103D700008BF70472DE9F04148F6565804464D1CDF
:103D8000002740F23F16C0F6000800BFA2F1200055
:103D9000C1B2490051FA80F008EB0012B1B22046DE
:103DA00000F00AF8EA5D22B1103E132F07F1010777
:103DB000ECD3BDE8F04170472DE9F04F83B040F2FD
:103DC0001847144688468346C4F6000700F0D8F921
:103DD00040F2020A40F2700600254FF02209C2F2BA
:103DE000000AC2F200060AE00BF1010B5FFA8BF049
:103DF000414600F0C5F90135182D00F09180D7F843
:103E0000FC03ADF80600386940F400703861386989
:103E100040F480703861386840F020003860C7F89E
:103E2000FC93386940F02000386100BF00BF00BF3C
:103E3000386840F020003860386840F4807038609E
:103E400000BF00BF00BF386840F400703860BDF8A4
:103E50000600C7F8FC03002030E000BF3188D7F827
:103E6000FC23ADF80A203A6942F400723A613A68DC
:103E700042F480723A603A6842F020023A60C7F831
:103E8000FC13396941F02001396100BF00BF00BF58
:103E9000396841F020013960396841F48071396036
:103EA00000BF00BF00BF396841F400713960BDF840
:103EB0000A1001301028C7F8FC1395D034F81510FB
:103EC000C140C907CAD1BAF80010D7F8FC23ADF831
:103ED00008203A6942F400723A613A6842F480720A
:103EE0003A603A6842F020023A60C7F8FC13396938
:103EF00041F02001396100BF00BF00BF396841F0C7
:103F000020013960396841F48071396000BF00BF19
:103F100000BF396841F400713960BDF80810C8E786
:103F200003B0BDE8F08F00002DE9F04F8BB0002604
:103F300041F24C000596CDE90366CDE90166C4F275
:103F40000200016840F2184541F004010160016877
:103F5000C4F6000501F0040106910699016801AC60
:103F600041F001010160016840F6140901F001010E
:103F7000069106990168C4F6000941F0020101604A
:103F80000068214600F00200069006984FF4487041
:103F9000019001200290A5F118000127CDE90366E8
:103FA000FDF7B8FC4FF48070CDE901074FF0904069
:103FB0002146CDE90366FDF7ADFC4FF6FF7005F530
:103FC0007A7406904FF0030806A920460A960896D0
:103FD0004FF6FF7B0797CDF82480FDF79BFC4FF64B
:103FE000004ACFF6FF7A55F80A0006A940F480701F
:103FF00045F80A0028684FF6FF7740F408702860FB
:10400000286940F400702861286940F480702861B4
:10401000286840F020002860C9F80060286940F056
:104020002000286100BF00BF00BF286840F02000CA
:104030002860286840F48070286020460A96089618
:10404000CDE906B6CDF82480FDF764FC4FF6104BA1
:10405000CFF6FF7B55F80B0006A940F4807045F8B9
:104060000B0000BF00BF00BFD5F8F89355F80A0059
:1040700040F4807045F80A0001200A9608960790DF
:1040800020460697CDF82480FDF744FC286848F2C6
:10409000302140F40070286040F2FC20C2F20000A1
:1040A000A0F800900088884202D100F023FA01E0D5
:1040B00001F07EF82869002640F400702861286924
:1040C0004FF6FF7840F48070286128684FF00309AC
:1040D00040F02000286040F61400C4F6000006609E
:1040E000286906A940F02000286100BF00BF00BF7A
:1040F000286840F020002860286840F4807028601C
:1041000020460A96CDE90766CDF81880CDF82490B0
:10411000FDF700FC55F80B0006A940F4807045F847
:104120000B0000BF00BF00BFD5F8F87355F80A00B8
:1041300040F4807045F80A0001200A96089607901E
:104140002046CDF81880CDF82490FDF7E3FB2868D1
:1041500040F40070286040F2FC20C2F200000780AA
:104160000BB0BDE8F08F000081B0ADF80200BDF8E3
:10417000020040F20201C2F20001088001B0704763
:1041800081B040F21842C4F60002D2F8FC33ADF818
:104190000030136943F400731361136943F48073AF
:1041A0001361136843F0200313602023C2F8FC332B
:1041B000136943F02003136100BF00BF00BF136801
:1041C00043F020031360136843F480731360C2F854
:1041D000FC03106940F02000106100BF00BF00BF69
:1041E000106840F020001060106840F4807010608B
:1041F000BDF80000C2F8FC03D2F8FC03ADF80200E1
:10420000106940F400701061106940F48070106112
:10421000106840F0200010602120C2F8FC031069F3
:1042200040F02000106100BF00BF00BF106840F0E8
:1042300020001060106840F480701060C2F8FC1319
:10424000106940F02000106100BF00BF00BF10687F
:1042500040F020001060106840F480701060BDF8DD
:104260000200C2F8FC0301B07047000081B0ADF855
:104270000200BDF8020040F27001C2F200010880A5
:1042800001B07047B0B586B0002541F24C000595ED
:10429000CDE90355CDE90155C4F20200016801AC36
:1042A00041F020010160016801F0200100910099B6
:1042B000016841F001010160016801F00101009114
:1042C0000099016841F0020101600068214600F098
:1042D0000200009000980120CDE901054FF09040C8
:1042E0000395FDF717FB0720CDE9010540F20040DB
:1042F000C4F6000021460395FDF70CFB06B0B0BDE7
:10430000B0B59AB044F60005002468463421C4F2E2
:1043100001051394CDE91144CDE90F44CDE90D44D5
:10432000FCF737FB40F20030C2F2000040F28F1180
:104330006322C0E90051C0E90242C0E9044484613B
:10434000FEF76EFB002818BFFDF752FA40F200306E
:10435000C2F20000FEF7ECFE002818BFFDF748FA95
:1043600060200D9040F200300024C2F200000DA940
:104370000022CDE90E44CDE91044CDE91244FEF708
:10438000EFFC002818BFFDF733FA4FF400500494F7
:10439000CDE90244CDE90044CDE905040C9440F296
:1043A0000034C2F2000469462046FEF771FA002884
:1043B00018BFFDF71DFA21680020A9421990CDE928
:1043C00017001690159001D01AB0B0BD41F24C0103
:1043D000C4F202010A6842F001020A60096801F0B1
:1043E000010114911499802115910221CDE9161033
:1043F00018900120199015A94FF09040FDF78AFA06
:104400001AB0B0BD10B584B040F24C3041F200019A
:104410000024C2F20000C4F2000142F20F730394C0
:10442000CDE9014440F21F3280E81600C360846188
:10443000FEF7F6FA002818BFFDF7DAF940F24C3023
:10444000C2F2000001A901940394FEF791FA00283A
:1044500018BFFDF7CDF904B010BD000080B540F2E3
:10446000983043F60001C2F20000C4F201010023BB
:104470004FF00C0C4FF4E13280E80E00C0E903333A
:10448000C0E905C3C0E90733C0E90933FFF792FA71
:10449000002818BFFDF7ACF940F29830C2F20000D6
:1044A0000021FFF761F8002818BFFDF7A1F940F2DD
:1044B0009830C2F200000021FFF70AF8002818BF68
:1044C000FDF796F940F29830C2F20000FEF7E0FFE7
:1044D000002818BFFDF78CF940F27400C2F200000A
:1044E000C821FCF756FA80BDFEE70000FEE7000099
:1044F0007047000081B040F21840C4F60000D0F8C8
:10450000FC130022ADF8021001694FF0030C41F4D6
:1045100000710161016941F480710161016841F03C
:1045200020010160C0F8FC23016941F02001016114
:1045300000BF00BF00BF016841F0200101600168B9
:1045400041F4807101600121C0F8FC13036943F05C
:104550002003036100BF00BF00BF036843F02003D6
:104560000360036843F480730360BDF80230C0F851
:10457000FC33D0F8FC33ADF80230036943F4007328
:104580000361036943F480730361036843F020030C
:104590000360C0F8FC13036943F02003036100BF0C
:1045A00000BF00BF036843F020030360036843F4C7
:1045B00080730360C0F8FC23026942F020020261AC
:1045C00000BF00BF00BF026842F020020260026824
:1045D00042F480720260BDF80220C0F8FC23D0F8DB
:1045E000FC23ADF80220026942F400720261026904
:1045F00042F480720261026842F0200202601022DE
:10460000C0F8FC23026942F02002026100BF00BF33
:1046100000BF026842F020020260026842F4807229
:10462000026041F29072C0F8FC23026942F020025D
:10463000026100BF00BF00BF026842F020020260BA
:10464000026842F480720260BDF80220C0F8FC23C8
:10465000D0F8FC23ADF80220026942F40072026136
:10466000026942F480720261026842F02002026034
:104670006022C0F8FC23026942F02002026100BF00
:1046800000BF00BF026842F020020260026842F4EC
:10469000807202604FF41C52C0F8FC23026942F0A1
:1046A0002002026100BF00BF00BF026842F020028A
:1046B0000260026842F480720260BDF80220C0F815
:1046C000FC23D0F8FC23ADF80220026942F400720A
:1046D0000261026942F480720261026842F02002C3
:1046E00002606122C0F8FC23026942F020020261EC
:1046F00000BF00BF00BF026842F0200202600268F3
:1047000042F480720260C0F8FC13016941F020019C
:10471000016100BF00BF00BF016841F020010160DE
:10472000016841F480710160BDF80210C0F8FC130B
:10473000D0F8FC13ADF80210016941F40071016179
:10474000016941F480710161016841F0200101605B
:104750004621C0F8FC13016941F02001016100BF4E
:1047600000BF00BF016841F020010160016841F411
:10477000807101600221C0F8FC13026942F020023E
:10478000026100BF00BF00BF026842F02002026069
:10479000026842F480720260BDF80220C0F8FC2377
:1047A000D0F8FC23ADF80220026942F400720261E5
:1047B000026942F480720261026842F020020260E3
:1047C0001322C0F8FC23026942F02002026100BFFC
:1047D00000BF00BF026842F020020260026842F49B
:1047E0008072026048F21002C0F8FC23026942F0B5
:1047F0002002026100BF00BF00BF026842F0200239
:104800000260026842F480720260BDF80220C0F8C3
:10481000FC23D0F8FC23ADF80220026942F40072B8
:104820000261026942F480720261026842F0200271
:1048300002601222C0F8FC23026942F020020261E9
:1048400000BF00BF00BF026842F0200202600268A1
:1048500042F48072026048F2FE02C0F8FC23026952
:1048600042F02002026100BF00BF00BF026842F0B8
:1048700020020260026842F480720260BDF80220E9
:10488000C0F8FC23D0F8FC23ADF80220026942F402
:1048900000720261026942F480720261026842F0B1
:1048A00020020260C0F8FC13016941F0200101619F
:1048B00000BF00BF00BF016841F020010160016836
:1048C00041F4807101604FF4A061C0F8FC130169EC
:1048D00041F02001016100BF00BF00BF016841F04D
:1048E00020010160016841F480710160BDF802108F
:1048F000C0F8FC13D0F8FC13ADF80210016941F4C4
:1049000000710161016941F480710161016841F048
:1049100020010160C0F8FCC3026942F0200202617C
:1049200000BF00BF00BF026842F0200202600268C0
:1049300042F48072026041F23002C0F8FC23026946
:1049400042F02002026100BF00BF00BF026842F0D7
:1049500020020260026842F480720260BDF8022008
:10496000C0F8FC23D0F8FC23ADF80220026942F421
:1049700000720261026942F480720261026842F0D0
:10498000200202603022C0F8FC23026942F02002BB
:10499000026100BF00BF00BF026842F02002026057
:1049A000026842F48072026040F20332C0F8FC23D5
:1049B000036943F02003036100BF00BF00BF036829
:1049C00043F020030360036843F480730360BDF881
:1049D0000230C0F8FC33D0F8FC33ADF80230036984
:1049E00043F400730361036943F480730361036854
:1049F00043F0200303603123C0F8FC33036943F024
:104A00002003036100BF00BF00BF036843F0200321
:104A10000360036843F480730360C0F8FC230369F8
:104A200043F02003036100BF00BF00BF036843F0F1
:104A300020030360036843F480730360BDF8023011
:104A4000C0F8FC33D0F8FC33ADF80230036943F40E
:104A500000730361036943F480730361036843F0E7
:104A6000200303603223C0F8FC33036943F02003C2
:104A7000036100BF00BF00BF036843F02003036071
:104A8000036843F480730360C0F8FC23036943F0B8
:104A90002003036100BF00BF00BF036843F0200391
:104AA0000360036843F480730360BDF80230C0F80C
:104AB000FC33D0F8FC33ADF80230036943F40073E3
:104AC0000361036943F480730361036843F02003C7
:104AD00003603323C0F8FC33036943F02003036110
:104AE00000BF00BF00BF036843F0200303600368FA
:104AF00043F4807303604FF44073C0F8FC330169E2
:104B000041F02001016100BF00BF00BF016841F01A
:104B100020010160016841F480710160BDF802105C
:104B2000C0F8FC13D0F8FC13ADF80210016941F491
:104B300000710161016941F480710161016841F016
:104B4000200101603421C0F8FC13016941F020010B
:104B5000016100BF00BF00BF016841F0200101609A
:104B6000016841F480710160C0F8FCC3016941F043
:104B70002001016100BF00BF00BF016841F02001BA
:104B80000160016841F480710160BDF80210C0F855
:104B9000FC13D0F8FC13ADF80210016941F4007168
:104BA0000161016941F480710161016841F02001F6
:104BB00001603521C0F8FC13016941F02001016159
:104BC00000BF00BF00BF016841F020010160016823
:104BD00041F480710160C0F8FC23016941F02001BB
:104BE000016100BF00BF00BF016841F0200101600A
:104BF000016841F480710160BDF80210C0F8FC1337
:104C0000D0F8FC13ADF80210016941F400710161A4
:104C1000016941F480710161016841F02001016086
:104C20003621C0F8FC13016941F02001016100BF89
:104C300000BF00BF016841F020010160016841F43C
:104C4000807101601421C0F8FC13016941F020015A
:104C5000016100BF00BF00BF016841F02001016099
:104C6000016841F480710160BDF80210C0F8FC13C6
:104C7000D0F8FC13ADF80210016941F40071016134
:104C8000016941F480710161016841F02001016016
:104C90003721C0F8FC13016941F02001016100BF18
:104CA00000BF00BF016841F020010160016841F4CC
:104CB00080710160C0F8FC23016941F020010161AD
:104CC00000BF00BF00BF016841F020010160016822
:104CD00041F480710160BDF80210C0F8FC13D0F8F7
:104CE000FC13ADF80210016941F400710161016922
:104CF00041F480710161016841F0200101603821B7
:104D0000C0F8FC13016941F02001016100BF00BF40
:104D100000BF016841F020010160016841F4807129
:104D20000160C0F8FC23016941F02001016100BF6E
:104D300000BF00BF016841F020010160016841F43B
:104D400080710160BDF80210C0F8FC13D0F8FC13AC
:104D5000ADF80210016941F400710161016941F48B
:104D600080710161016841F0200101603921C0F8C2
:104D7000FC13016941F02001016100BF00BF00BFC9
:104D8000016841F020010160016841F48071016017
:104D9000C0F8FC23016941F02001016100BF00BFA0
:104DA00000BF016841F020010160016841F4807199
:104DB0000160BDF80210C0F8FC13D0F8FC13ADF888
:104DC0000210016941F400710161016941F48071CF
:104DD0000161016841F0200101603A21C0F8FC1333
:104DE000016941F02001016100BF00BF00BF0168FF
:104DF00041F020010160016841F480710160C0F858
:104E0000FC33016941F02001016100BF00BF00BF18
:104E1000016841F020010160016841F48071016086
:104E2000BDF80210C0F8FC13D0F8FC13ADF8021066
:104E3000016941F400710161016941F4807101610E
:104E4000016841F0200101603B21C0F8FC130169B9
:104E500041F02001016100BF00BF00BF016841F0C7
:104E600020010160016841F480710160C0F8FCC359
:104E7000016941F02001016100BF00BF00BF01686E
:104E800041F020010160016841F480710160BDF8CA
:104E90000210C0F8FC13D0F8FC13ADF80210016941
:104EA00041F400710161016941F48071016101689F
:104EB00041F0200101603C21C0F8FC13016941F080
:104EC0002001016100BF00BF00BF016841F0200167
:104ED0000160016841F480710160C0F8FC23016940
:104EE00041F02001016100BF00BF00BF016841F037
:104EF00020010160016841F480710160BDF8021079
:104F0000C0F8FC13D0F8FC13ADF80210016941F4AD
:104F100000710161016941F480710161016841F032
:104F2000200101603D21C0F8FC13016941F020011E
:104F3000016100BF00BF00BF016841F020010160B6
:104F4000016841F4807101604FF4A051C0F8FC1376
:104F5000016941F02001016100BF00BF00BF01688D
:104F600041F020010160016841F480710160BDF8E9
:104F70000210C0F8FC13D0F8FC13ADF80210016960
:104F800041F400710161016941F4807101610168BE
:104F900041F0200101609221C0F8FC13016941F049
:104FA0002001016100BF00BF00BF016841F0200186
:104FB0000160016841F4807101604FF40071C0F834
:104FC000FC13016941F02001016100BF00BF00BF77
:104FD000016841F020010160016841F480710160C5
:104FE000BDF80210C0F8FC13D0F8FC13ADF80210A5
:104FF000016941F400710161016941F4807101614D
:10500000016841F0200101609321C0F8FC1301699F
:1050100041F02001016100BF00BF00BF016841F005
:1050200020010160016841F480710160C0F8FC2337
:10503000016941F02001016100BF00BF00BF0168AC
:1050400041F020010160016841F480710160BDF808
:105050000210C0F8FC13D0F8FC13ADF8021001697F
:1050600041F400710161016941F4807101610168DD
:1050700041F0200101609021C0F8FC13016941F06A
:105080002001016100BF00BF00BF016841F02001A5
:105090000160016841F48071016040F60D01C0F8C3
:1050A000FC13016941F02001016100BF00BF00BF96
:1050B000016841F020010160016841F480710160E4
:1050C000BDF80210C0F8FC13D0F8FC13ADF80210C4
:1050D000016941F400710161016941F4807101616C
:1050E000016841F020010160C0F8FCC3016941F092
:1050F0002001016100BF00BF00BF016841F0200135
:105100000160016841F48071016041F21801C0F84A
:10511000FC13016941F02001016100BF00BF00BF25
:10512000016841F020010160016841F48071016073
:10513000BDF80210C0F8FC13D0F8FC13ADF8021053
:10514000016941F400710161016941F480710161FB
:10515000016841F0200101600721C0F8FC130169DA
:1051600041F02001016100BF00BF00BF016841F0B4
:1051700020010160016841F48071016040F2731107
:10518000C0F8FC13016941F02001016100BF00BFBC
:1051900000BF016841F020010160016841F48071A5
:1051A0000160BDF80210C0F8FC1301B070470000A8
:1051B0002DE9F04F81B040F21844C4F60004D4F851
:1051C000FC034FF01209ADF802002069002540F4FD
:1051D000007020612069112640F4807020612068F1
:1051E0004FF0130B40F020002060E320C4F8FC03D4
:1051F0002069102740F02000206100BF00BF00BFE1
:1052000020684FF0070840F020002060206840F43C
:105210008070206043F20800C4F8FC03206940F06D
:105220002000206100BF00BF00BF206840F02000C8
:105230002060206840F480702060BDF80200C4F84F
:10524000FC03D4F8FC03ADF80200206940F40070C0
:105250002061206940F480702061206840F02000C7
:105260002060E720C4F8FC03206940F020002061A2
:1052700000BF00BF00BF206840F020002060206811
:1052800040F480702060C4F8FC93206940F0200056
:10529000206100BF00BF00BF206840F020002060F8
:1052A000206840F480702060BDF80200C4F8FC0360
:1052B000D4F8FC03ADF80200206940F400702061CE
:1052C000206940F480702061206840F02000206058
:1052D000EF20C4F8FC03206940F02000206100BFEB
:1052E00000BF00BF206840F020002060206840F42C
:1052F0008070206041F23120C4F8FC03206940F046
:105300002000206100BF00BF00BF206840F02000E7
:105310002060206840F480702060BDF80200C4F86E
:10532000FC03D4F8FC03ADF80200206940F40070DF
:105330002061206940F480702061206840F02000E6
:1053400020600120C4F8FC03206940F020002061A7
:1053500000BF00BF00BF206840F020002060206830
:1053600040F480702060C4F8FC53206940F02000B5
:10537000206100BF00BF00BF206840F02000206017
:10538000206840F480702060BDF80200C4F8FC037F
:10539000D4F8FC03ADF80200206940F400702061ED
:1053A000206940F480702061206840F02000206077
:1053B0000220C4F8FC03206940F02000206100BFF7
:1053C00000BF00BF206840F020002060206840F44B
:1053D000807020604FF4E060C4F8FC03206940F066
:1053E0002000206100BF00BF00BF206840F0200007
:1053F0002060206840F480702060BDF80200C4F88E
:10540000FC03D4F8FC03ADF80200206940F40070FE
:105410002061206940F480702061206840F0200005
:1054200020600320C4F8FC03206940F020002061C4
:1054300000BF00BF00BF206840F02000206020684F
:1054400040F48070206041F23000C4F8FC03206911
:1054500040F02000206100BF00BF00BF206840F086
:1054600020002060206840F480702060BDF80200B9
:10547000C4F8FC03D4F8FC03ADF80200206940F442
:1054800000702061206940F480702061206840F045
:10549000200020600420C4F8FC03206940F02000B4
:1054A000206100BF00BF00BF206840F020002060E6
:1054B000206840F480702060C4F8FC53206940F0FC
:1054C0002000206100BF00BF00BF206840F0200026
:1054D0002060206840F480702060BDF80200C4F8AD
:1054E000FC03D4F8FC03ADF80200206940F400701E
:1054F0002061206940F480702061206840F0200025
:1055000020600820C4F8FC03206940F020002061DE
:1055100000BF00BF00BF206840F02000206020686E
:1055200040F48070206040F20720C4F8FC0320693A
:1055300040F02000206100BF00BF00BF206840F0A5
:1055400020002060206840F480702060BDF80200D8
:10555000C4F8FC03D4F8FC03ADF80200206940F461
:1055600000702061206940F480702061206840F064
:10557000200020600920C4F8FC03206940F02000CE
:10558000206100BF00BF00BF206840F02000206005
:10559000206840F480702060C4F8FC53206940F01B
:1055A0002000206100BF00BF00BF206840F0200045
:1055B0002060206840F480702060BDF80200C4F8CC
:1055C000FC03D4F8FC03ADF80200206940F400703D
:1055D0002061206940F480702061206840F0200044
:1055E00020600A20C4F8FC03206940F020002061FC
:1055F00000BF00BF00BF206840F02000206020688E
:1056000040F480702060C4F8FC53206940F0200012
:10561000206100BF00BF00BF206840F02000206074
:10562000206840F480702060BDF80200C4F8FC03DC
:10563000D4F8FC03ADF80200206940F4007020614A
:10564000206940F480702061206840F020002060D4
:105650000C20C4F8FC03206940F02000206100BF4A
:1056600000BF00BF206840F020002060206840F4A8
:1056700080702060C4F8FC53206940F02000206155
:1056800000BF00BF00BF206840F0200020602068FD
:1056900040F480702060BDF80200C4F8FC03D4F828
:1056A000FC03ADF80200206940F40070206120691D
:1056B00040F480702061206840F0200020600D20C0
:1056C000C4F8FC03206940F02000206100BF00BF47
:1056D00000BF206840F020002060206840F4807007
:1056E0002060C4F8FC53206940F02000206100BF16
:1056F00000BF00BF206840F020002060206840F418
:1057000080702060BDF80200C4F8FC03D4F8FC03EC
:10571000ADF80200206940F400702061206940F477
:1057200080702061206840F0200020600F20C4F8C5
:10573000FC03206940F02000206100BF00BF00BFD3
:10574000206840F020002060206840F480702060D5
:10575000C4F8FC53206940F02000206100BF00BF66
:1057600000BF206840F020002060206840F4807076
:105770002060BDF80200C4F8FC03D4F8FC03ADF8C7
:105780000200206940F400702061206940F48070BC
:105790002061206840F0200020601020C4F8FC0345
:1057A000206940F02000206100BF00BF00BF2068DA
:1057B00040F020002060206840F480702060C4F831
:1057C000FC53206940F02000206100BF00BF00BFF3
:1057D000206840F020002060206840F48070206045
:1057E000BDF80200C4F8FC03D4F8FC03ADF80200D5
:1057F000206940F400702061206940F480702061CD
:10580000206840F020002060C4F8FC63206940F06C
:105810002000206100BF00BF00BF206840F02000D2
:105820002060206840F4807020600720C4F8FC03EA
:10583000206940F02000206100BF00BF00BF206849
:1058400040F020002060206840F480702060BDF8A7
:105850000200C4F8FC03D4F8FC03ADF80200206990
:1058600040F400702061206940F48070206120685D
:1058700040F020002060C4F8FC93206940F0200034
:10588000206100BF00BF00BF206840F02000206002
:10589000206840F480702060C4F8FC53206940F018
:1058A0002000206100BF00BF00BF206840F0200042
:1058B0002060206840F480702060BDF80200C4F8C9
:1058C000FC03D4F8FC03ADF80200206940F400703A
:1058D0002061206940F480702061206840F0200041
:1058E0002060C4F8FCB3206940F02000206100BFB4
:1058F00000BF00BF206840F020002060206840F416
:1059000080702060C4F8FC53206940F020002061C2
:1059100000BF00BF00BF206840F02000206020686A
:1059200040F480702060BDF80200C4F8FC03C82079
:10593000FBF7DCFFD4F8FC034FF0320AADF80200AD
:10594000206940F400702061206940F4807020617B
:10595000206840F020002060C4F8FC732069102704
:1059600040F02000206100BF00BF00BF206840F071
:1059700020002060206840F48070206041F2906038
:10598000C4F8FC03206940F02000206100BF00BF84
:1059900000BF206840F020002060206840F4807044
:1059A0002060BDF80200C4F8FC03D4F8FC03ADF895
:1059B0000200206940F400702061206940F480708A
:1059C0002061206840F020002060C4F8FC6320695A
:1059D00040F02000206100BF00BF00BF206840F001
:1059E00020002060206840F48070206040F2272072
:1059F000C4F8FC03206940F02000206100BF00BF14
:105A000000BF206840F020002060206840F48070D3
:105A10002060BDF80200C4F8FC033220FBF766FFEB
:105A2000D4F8FC03ADF80200206940F40070206156
:105A3000206940F480702061206840F020002060E0
:105A4000C4F8FC93206940F02000206100BF00BF33
:105A500000BF206840F020002060206840F4807083
:105A600020601D20C4F8FC03206940F02000206164
:105A700000BF00BF00BF206840F020002060206809
:105A800040F480702060BDF80200C4F8FC033220AE
:105A9000FBF72CFFD4F8FC03ADF80200206940F4BA
:105AA00000702061206940F480702061206840F01F
:105AB00020002060C4F8FCB3206940F02000206181
:105AC00000BF00BF00BF206840F0200020602068B9
:105AD00040F4807020604FF40060C4F8FC0320693B
